:020000040800F2
:10000000B82B0020FD1A0008651B0008651B0008BE
:10001000651B0008651B0008651B00080000000048
:10002000000000000000000000000000651B000848
:10003000651B000800000000953F0008754400089B
:10004000651B0008651B0008651B0008651B000890
:10005000651B0008651B0008651B0008651B000880
:10006000651B0008651B0008651B0008651B000870
:10007000651B0008651B0008651B0008651B000860
:10008000651B0008651B0008651B0008651B000850
:10009000651B0008651B0008651B0008651B000840
:1000A000651B0008651B0008651B0008651B000830
:1000B000651B0008651B0008651B0008651B000820
:1000C000651B0008651B0008651B0008651B000810
:1000D000651B0008ED100008651B0008651B000883
:1000E000651B0008651B0008651B0008651B0008F0
:1000F000651B0008651B0008651B0008651B0008E0
:10010000651B0008651B0008651B0008651B0008CF
:10011000651B0008651B0008651B0008651B0008BF
:10012000651B0008651B0008651B0008651B0008AF
:10013000651B0008651B0008651B0008651B00089F
:10014000651B0008651B0008651B0008651B00088F
:10015000651B0008651B0008651B0008651B00087F
:10016000651B0008651B0008651B0008651B00086F
:10017000651B0008651B0008651B0008651B00085F
:10018000651B0008651B000880B582B000AF8020A9
:10019000012101F025FF0C233B6001233B71022369
:1001A0007B710023BB710023FB713B460C48194651
:1001B00003F068FA4FF48070012101F011FF4FF451
:1001C000A0633B6001233B710023BB710023FB71E3
:1001D0003B460448194603F055FA0837BD4680BD32
:1001E000001C02400020024080B582B000AF0346F0
:1001F000FB71FB79042B2DD801A252F823F000BF2C
:100200001502000829020008330200083D02000818
:100210004902000811480C2103F0DCFA10484FF4A1
:10022000A06103F0D7FA15E00C48042103F0D2FADC
:1002300010E00A48082103F0CDFA0BE008484FF41B
:10024000807103F0C7FA05E005484FF4806103F0C0
:10025000C1FA00BF0837BD4680BD00BF001C024088
:100260000020024080B582B000AF0346FB71FB79ED
:10027000042B2DD801A252F823F000BF91020008F0
:10028000A5020008AF020008B9020008C502000874
:1002900011480C2103F0ACFA10484FF4A06103F0B0
:1002A000A7FA15E00C48042103F0A2FA10E00A486E
:1002B000082103F09DFA0BE008484FF4807103F029
:1002C00097FA05E005484FF4806103F091FA00BF0A
:1002D0000837BD4680BD00BF001C02400020024020
:1002E00080B582B000AF0346FB71FB79042B2DD89B
:1002F00001A252F823F000BF0D03000821030008FB
:100300002B030008350300084103000811480C21A5
:1003100003F07CFA10484FF4A06103F077FA15E07F
:100320000C48042103F072FA10E00A48082103F097
:100330006DFA0BE008484FF4807103F067FA05E0AE
:1003400005484FF4806103F061FA00BF0837BD46ED
:1003500080BD00BF001C02400020024080B400AFFE
:100360000C4A0D4B1A600B4BC8330B4A53600B4BB6
:10037000084A1A60094B1B6800221A60074B1B6869
:1003800000225A60054B1B6800229A60BD465DF84A
:10039000047B70474804002014050020100500204D
:1003A00080B500AF014803F0A7FD80BD1C0500200B
:1003B00080B500AF0E4803F0B7FD0D4B1B78DBB2E4
:1003C000002B14D10B4B1B78DBB2012B0FD10A4B46
:1003D0001B78DBB20133DAB2074B1A7001F036FA40
:1003E000054B1B78DBB2013BDAB2034B1A7080BDC0
:1003F0001C0500201E0500201D05002080B500AF53
:100400000E4B1B78DBB2012B10D10D4B1B78012B4F
:1004100001D101F0F1FB0B4B1B78DBB2012B01D1B9
:1004200001F014FA054B00221A7006E0034B1B780A
:10043000DBB2013BDAB2014B1A7080BD1D05002012
:10044000A00900201E05002080B500AF154B164AFC
:100450001A60164B07221A60154A154B1B6843F0A9
:100460007F431360134A134B1B686FEA03436FEA21
:100470001343136000F076FE02F034FFFFF76EFFC7
:100480000D4B1B78DBB20133DAB20B4B1A700B4801
:10049000002144F240020A4B01F09EFA084803F0A2
:1004A00069FD80BD14E000E03F90020010E000E034
:1004B0001CED00E020ED00E01D050020D147000804
:1004C0004009002080B500AF094B0A4A1A60084B6A
:1004D0001B68094A1360064B1B6801225A71044BC2
:1004E0001B68184601F01AF9FFF788FF80BD00BFAE
:1004F00050090020580500204C09002090B587B015
:1005000000AF0346FB71FA796D4913465B00134453
:10051000DB000B445B68FB60FB68002B00D1CCE088
:10052000684B1B78DBB20133DAB2664B1A70664B4C
:100530001B68002B09D1FA7913465B001344DB00DA
:100540005F4A1344604A1360B5E05F4B1B687B61F0
:10055000FB683B61ABE03A697B695B68D31A3B613E
:100560003B69002B7CDA7B695B69002B28D07B69B7
:100570005969FA7913465B001344DB00504A13446F
:100580000B61FA797B6959694D4813465B00134446
:10059000DB00034410335960FA79494913465B0084
:1005A0001344DB000B4410337A691A60FA7913465E
:1005B0005B001344DB00424A1A447B695A611DE028
:1005C000FA79414B19683E4813465B001344DB003F
:1005D0000344103319603C4B1968FA7913465B00E9
:1005E0001344DB00364A13444B61FA7913465B002F
:1005F0001344DB00324A1344334A1360FA79F97921
:100600002F480B465B000B44DB00034410331B6890
:1006100059683B6919442A4813465B001344DB00C0
:1006200003445960FA79264913465B001344DB0002
:100630000B4410331968FA79214813465B001344C0
:10064000DB00034410331B685868FA791C4C1346CE
:100650005B001344DB0023445B68C31A4B602AE051
:100660003B69002B20DB7B691B69002B1CD1FA79CD
:10067000134913465B001344DB000B4410337A69C3
:100680005A60FA7913465B001344DB000C4A1A44A3
:100690007B691A61FA793969094813465B0013448A
:1006A000DB000344596006E07B691B697B617B6961
:1006B000002B7FF450AFFFF7A1FE1C37BD4690BD65
:1006C000200500201D0500205005002080B584B0C5
:1006D00000AF0346FB71FA7913465B001344DB005D
:1006E0002C4A1344FB602C4B1B78DBB20133DAB28B
:1006F000294B1A70FB685B69002B07D1FB681B69EB
:10070000002B03D1254B00221A603DE0FB685B699A
:10071000002B14D1FB681B69204A13601F4B1B6818
:1007200000225A61FB681B69FA6812695168FA680D
:1007300052680A445A60FB6800221A6124E0FB6890
:100740001B69002B07D1FB685B6900221A61FB68FB
:1007500000225A6118E0FB685B69FA6812691A6145
:10076000FB681B69FA6852695A61FB681B69FA6881
:1007700012695168FA6852680A445A60FB6800229C
:100780001A61FB6800225A61FFF738FE1037BD4638
:1007900080BD00BF200500201D0500205005002061
:1007A00080B586B000AFB9607A603B600346FB73EA
:1007B000FB7B002B04D0FB7B012B01D0FF237BE0D4
:1007C0003B68002B01D1FF2376E03D4B1B78DBB269
:1007D0000133DAB23A4B1A700023FB7566E0FB7DF9
:1007E000012202FA03F31A46364B1B681340002B12
:1007F00059D1FB7D012202FA03F31A46314B1B68E3
:100800001343304A1360FFF7F9FDFA7D2E49134672
:100810005B001344DB000B44FA7D1A70FA7D2A4911
:1008200013465B001344DB000B44FA7B5A70FA7DDD
:10083000254913465B001344DB000B4401229A70E8
:10084000FA7D214913465B001344DB000B44BA6870
:100850005A60FA7D1C4913465B001344DB000B44CD
:1008600008337A681A60FA7D174913465B0013440F
:10087000DB000B4408333A685A60FA7D124913468C
:100880005B001344DB000B44103300225A60FA7DF6
:100890000D4913465B001344DB000B441033002268
:1008A0001A60FB7D08E0FB7D0133FB75FB7D012BAE
:1008B00095D9FFF7A3FDFF2318461837BD4680BD25
:1008C0001D050020540500202005002080B582B0C1
:1008D00000AF0346FB71FB79012B01D9012325E011
:1008E000FB79012202FA03F31A46124B1B681340EC
:1008F000002B01D1012319E0FA790F4913465B005F
:100900001344DB000B449B78002B01D100230DE046
:10091000FA79094913465B001344DB000B440022BB
:100920009A70FB791846FFF7E9FD0023184608374F
:10093000BD4680BD540500202005002080B582B052
:1009400000AF1B4B1B687B6027E07B685B78002B4C
:100950000BD17B681B781846FFF7B8FE7B68012235
:100960009A707B68DB68984714E07B685B78012BA2
:1009700010D17B681B781846FFF7A8FE7B689A6841
:100980007B685A607B681B781846FFF7B7FD7B6869
:10099000DB689847064B1B687B607B68002B03D0A5
:1009A0007B685B68002BD0D00837BD4680BD00BF98
:1009B0005005002080B500AF074B1B78DBB2012B40
:1009C00006D9064B01221A70054B01221A7001E06C
:1009D000FFF7B4FF80BD00BF1D050020A009002067
:1009E000A209002080B58AB000AF7860396000238A
:1009F0007B6200233B620023FB610023BB617B68B9
:100A00001B8A9BB27B627B6A23F440537B623B6808
:100A1000DB881A467B6A13437B627B6A9AB27B68E7
:100A20001A827B689B899BB27B627B6A23F4B053FA
:100A300023F00C037B623B689A883B681B89134355
:100A40009AB23B685B8913439BB21A467B6A134395
:100A50007B627B6A9AB27B689A817B689B8A9BB235
:100A60007B627B6A23F440737B623B689B891A46F6
:100A70007B6A13437B627B6A9AB27B689A8207F136
:100A80000803184601F002FA7B68314A934203D00A
:100A90007B68304A934202D17B693B6201E03B694B
:100AA0003B627B689B899BB29BB21BB2002B0CDA2A
:100AB0003A6A13469B0013449A001A443B681B6829
:100AC0005B00B2FBF3F3FB610BE03A6A13469B0059
:100AD00013449A001A443B681B689B00B2FBF3F373
:100AE000FB61FB691C4AA2FB03235B091B017B62C0
:100AF0007B6A1B09642202FB03F3FA69D31ABB6108
:100B00007B689B899BB29BB21BB2002B0CDABB6942
:100B1000DB003233104AA2FB03235B0903F0070317
:100B20007A6A13437B620BE0BB691B0132330A4ACA
:100B3000A2FB03235B0903F00F037A6A13437B6272
:100B40007B6A9AB27B681A812837BD4680BD00BF98
:100B500000100140001401401F85EB5180B483B0A8
:100B600000AF78600B46FB70FB78002B08D07B68E9
:100B70009B899BB243F400539AB27B689A8107E049
:100B80007B689B899BB223F400539AB27B689A815D
:100B90000C37BD465DF8047B704700BF80B483B05E
:100BA00000AF78600B467B807B88C3F308039AB262
:100BB0007B689A800C37BD465DF8047B704700BFA8
:100BC00080B483B000AF78607B689B889BB2C3F32E
:100BD00008039BB218460C37BD465DF8047B70478E
:100BE00080B487B000AF78600B467B8013467B7083
:100BF00000233B610023FB600023BB6000237B617B
:100C00007B687B617B88DBB25B09DBB23B617B8805
:100C100003F01F03FB60FB68012202FA03F3BB60D1
:100C20003B69012B03D17B690C337B6109E03B6994
:100C3000022B03D17B6910337B6102E07B691433A3
:100C40007B617B78002B06D07B697A691168BA6872
:100C50000A431A6006E07B697A691168BA68D24370
:100C60000A401A601C37BD465DF8047B704700BF20
:100C700080B487B000AF78600B467B800023FB60B8
:100C800000237B610023BB600023FB747B88DBB205
:100C90005B09DBB2BB607B8803F01F037B617B6970
:100CA000012202FA03F37B61BB68012B07D17B6849
:100CB0009B899BB21A467B6913407B6111E0BB683C
:100CC000022B07D17B681B8A9BB21A467B691340B3
:100CD0007B6106E07B689B8A9BB21A467B69134066
:100CE0007B617B881B0A9BB2FB60FB68012202FAD6
:100CF00003F3FB607B681B889BB21A46FB681340BA
:100D0000FB607B69002B05D0FB68002B02D0012320
:100D1000FB7401E00023FB74FB7C18461C37BD46C6
:100D20005DF8047B704700BF80B485B000AF786089
:100D30000B467B800023FB810023BB817B881B0A41
:100D4000FB81FB89012202FA03F3BB81BB89DB43F0
:100D50009AB27B681A801437BD465DF8047B7047F1
:100D600080B582B000AF1020012101F039F97C2359
:100D70003B6000233B710123FB713B46034819464E
:100D800002F080FC0837BD4680BD00BF0010024065
:100D900080B582B000AF0023FB711948042102F036
:100DA000FFFC0346002B01D10123FB7114480821ED
:100DB00002F0F6FC0346002B01D10223FB71104820
:100DC000102102F0EDFC0346002B01D10323FB713F
:100DD0000B48202102F0E4FC0346002B01D1042340
:100DE000FB710748402102F0DBFC0346002B01D1D8
:100DF0000523FB71FB7918460837BD4680BD00BF4F
:100E00000010024080B582B000AF0346FB71074B73
:100E10001B781846002103F009FCFB799BB20448BB
:100E20001946FFF7BBFE0837BD4680BD741300208E
:100E30000010014080B500AF01200121022203F023
:100E4000C5FB03461A46064B1A70064810210222BB
:100E500002F0ACFE03461A46034B1A7080BD00BF79
:100E600074130020341300203013002080B500AF2D
:100E700000F0E0F8074800214FF00112064B00F0A7
:100E8000ABFD064800214FF00112054B00F0A4FD18
:100E900080BD00BFA50E00082C0F0020390F0008F0
:100EA0002C13002080B586B000AF7860002000F0E1
:100EB000B3FF0346FB82FB8A1B0A9BB27B75FB8A4E
:100EC0003B75012000F0A8FF03467B827B8A1B0A4A
:100ED0009BB27B747B8A3B74FFF75AFF0346FB731C
:100EE0007E20FFF78FFF0520FFF78CFFFB8A1B0A90
:100EF0009BB2DBB21846FFF785FFFB8ADBB21846D0
:100F0000FFF780FF7B8A1B0A9BB2DBB21846FFF714
:100F100079FF7B8ADBB21846FFF774FFFB7B18462C
:100F2000FFF770FF0D20FFF76DFF0020002100226A
:100F3000642302F0B5F8B9E790B587B000AF7860E8
:100F40000023FB7500237B750023BB750023FB7515
:100F50000AE0244B1A7807F10B03104600211A46C9
:100F600002F0A2FE0346FB75FB7D7E2BF1D11D4BEB
:100F70001A7807F10B03104600211A4602F094FE7E
:100F800003467B750023BB7513E0BC7D154B1A78B7
:100F900007F10B03104600211A4602F085FE0346B6
:100FA000DAB207F11803234403F80C2CBB7D01339C
:100FB000BB75BA7D7B7D9A42E7D30A4B1A7807F15D
:100FC0000B03104600211A4602F06EFE0346FB7525
:100FD000FB7D0D2B04D107F10C03184600F004F83B
:100FE000B4E700BF3013002080B582B000AF786056
:100FF0007B681B784D2B12D0532B09D04C2B00D083
:1010000014E07B6801331B78184602F009F90DE003
:101010007B6801331B78184602F0AEFC06E07B6863
:1010200001331B78184601F0ADF800BF0837BD4604
:1010300080BD00BF80B588B000AF0120012100F065
:10104000CFFF1020012101F007F8264809210722CF
:1010500002F0EEFB23480A21072202F0E9FB4FF4DD
:10106000C0637B6002233B720023BB720123FB72CF
:1010700002237B723B1D1B48194602F003FB4FF411
:10108000E133FB6000233B8200237B820023BB8291
:1010900000233B830C23FB8207F10C031248194603
:1010A000FFF7A0FC10480121FFF758FD0E4840F261
:1010B00025510122FFF794FD0B4840F226610122E1
:1010C000FFF78EFD25233B7704237B770023BB7737
:1010D0000123FB7707F11C03184603F017FA2037AA
:1010E000BD4680BD000002400010014080B582B0C6
:1010F00000AFFFF755F9184840F22551FFF7B8FD4A
:101100000346002B10D01448FFF75AFD0346FB712D
:10111000124B1B78FA791846114602F0C9FE0E48A8
:1011200040F22551FFF700FE0B4840F22661FFF721
:101130009FFD0346002B09D0074840F22661FFF7C8
:10114000F3FD074B1B78184603F020FBFFF730F93F
:101150000837BD4680BD00BF00100140301300209D
:101160007413002080B485B000AF1C4B00221A70AD
:101170001B4BBB601B4B7B600023FB7319E0BB6800
:10118000FA7B9A71BB6803225A71BB687A685A620B
:10119000FB7B154AFF21D154FB7B144AFF21D1541C
:1011A000BB682C33BB607B682C337B60FB7B0133DB
:1011B000FB73FB7B0F2BE2D9FB7B0C4AFF21D15445
:1011C000BB68FA7B9A71BB6800225A62084B044ADA
:1011D0001A601437BD465DF8047B70477813002011
:1011E0005805002084050020600900209413002089
:1011F0004409002080B485B000AF03463960FB711C
:101200000023BB73194B1B78FB7321E0BB7B7B7303
:10121000BA7BFB7B1344DA0F13445B10BB73BB7BBD
:10122000134AD35CFA799A4204D13B68BA7B1A70AC
:10123000012315E0BB7B0E4AD35CFA799A4204D2B3
:10124000BB7BFB737B7BBB7302E0BB7B0133BB735C
:10125000BA7BFB7B9A42D9D13B68BA7B1A700023D8
:1012600018461437BD465DF8047B7047781300209C
:101270009413002080B485B000AF0346FB71FB7966
:101280005B09FB73FB7903F01F03BB73FB7B404AD5
:1012900052F82330BB60BB68002B6AD0BB7BDB08F5
:1012A0007B737B7BDB00FF2202FA03F31A46BB68E9
:1012B0001340002B53D07B7BDB00F02202FA03F3B8
:1012C0001A46BB681340002B1FD0BB7B3B7315E055
:1012D00097F90C30012202FA03F31A46BB68134057
:1012E000002B06D0FB7B5B01DAB23B7B1344DBB205
:1012F00047E03B7BDBB2013BDBB23B7397F90C2051
:101300007B7BDB0004339A42E2DABB7B03F004030D
:10131000002B05D0BB7B43F00303DBB2043BBB7364
:10132000BB7B3B7315E097F90C30012202FA03F303
:101330001A46BB681340002B06D0FB7B5B01DAB278
:101340003B7B1344DBB21CE03B7BDBB2013BDBB2FB
:101350003B7397F90C207B7BDB009A42E3DA7B7BC3
:10136000DB00DBB2013BBB737B7B5A1E7A73002B25
:1013700097D11F23BB73FB7B5A1EFA73002B85D1B9
:10138000FF2318461437BD465DF8047B704700BF45
:101390009013002080B485B000AF0346FB7100239A
:1013A000BB730023BB60FB795B09BB730023FB733A
:1013B0000AE0FB7B012202FA03F31A46BB681343DF
:1013C000BB60FB7B0133FB73FB7903F01F03DBB2D4
:1013D000FA7B9A42EDD3BB7B204A52F82330BA689D
:1013E0001340BB60FB79FB7325E0FB7B03F01F031D
:1013F000DBB2002B0DD1FA7BFB799A4209D0BB7B83
:101400005A1CBA731946154ABB6842F821300023AA
:10141000BB60FB7B124AD35CFF2B09D0FB7B03F044
:101420001F03012202FA03F31A46BB681343BB6091
:10143000FB7B0133FB730B4B1B78FA7B9A42D4D3B3
:10144000BB7B5A1CBA731946044ABB6842F8213068
:101450001437BD465DF8047B704700BF9013002031
:10146000600900207813002080B483B000AF0346E9
:10147000FB71FB795B09DBB21A460A4B53F8223049
:10148000FA7902F01F02012101FA02F21340002B47
:1014900001D1002300E0012318460C37BD465DF85A
:1014A000047B70479013002080B485B000AF0346E2
:1014B0000A46FB711346BB71FB795B09DBB21A4626
:1014C000124B53F82230FB60FB7903F01F0301221B
:1014D00002FA03F3DB431A46FB681340FB60BA7958
:1014E000FB7903F01F0302FA03F31A46FB68134368
:1014F000FB60FB795B09DBB21946044AFB6842F8E2
:1015000021301437BD465DF8047B704790130020EE
:1015100080B584B000AF0346FB71FA7907F10E0382
:1015200010461946FFF766FE0346002B39D1224BC1
:101530001B78FB7317E0FB7BFA7B013A1F49895C40
:101540001E4AD154FB7BFA7B013A1D49895C1C4A37
:10155000D154FB7BFA7B013A1A49895C194AD15470
:10156000FB7B013BFB73BB7BFA7B9A42E3D8BB7BE3
:101570001946124AFB795354BB7B1A46104B012182
:101580009954BB7B1A460F4BFF2199540A4B1B7889
:101590000133DAB2084B1A70BB7B1846FFF7FAFE2C
:1015A00006E0BB7B064AD25C0132D1B2044AD15478
:1015B0001037BD4680BD00BF781300209413002073
:1015C0007C1300206009002080B586B000AF7860F1
:1015D0007B681B79FB747B6800225A71484B1B683F
:1015E0007B617B691B79FA7C9A421ED17A697B68A0
:1015F0009A421AD07B69002B17D0424BD3E90001E5
:10160000414BD3E90023994208BF90420DD27B6938
:101610005B8998B24FF000013B4BD3E900231218CD
:1016200043EB01033749C1E90023FA7C07F10B03BF
:1016300010461946FFF7DEFDFB7A1846FFF714FF48
:101640000346012B11D1FB7A1A46304B9B5C1A469C
:101650002C2303FB02F32E4A13447B61FB7A1A46C8
:101660007B689979294B995434E0FB7A1A467B6858
:101670009979264B9954FB7A1846FFF7FBFD0346F0
:10168000BB74FB7A18460121FFF70EFFBB7CFF2BD2
:1016900016D1204B1B687B611F4B01221A707B699E
:1016A000002B03D11B4A7B68136025E07B687A69B5
:1016B0005A627B697A689A62164A7B6813601BE0FB
:1016C000BB7C124AD35C1A462C2303FB02F3104A5C
:1016D00013447B617B695B6AFB607B68FA685A62D2
:1016E0007B697A685A627B687A699A62FB68002B28
:1016F00002D0FB687A689A621837BD4680BD00BF89
:101700005009002058090020280B00206009002003
:1017100058050020480900201E05002080B584B02F
:1017200000AF78600023FB737B681B79BB73BA7BC7
:1017300007F10D0310461946FFF75CFD7B685B6AF5
:10174000002B09D17B689B6A002B05D13D4B002201
:101750001A600123FB7365E07B689B6A002B13D141
:101760007B685B6A374A13607B6800225A62354B9C
:101770001B6800229A62334B1B681B79BA7B9A4222
:1017800050D00123FB734DE07B685B6A002B17D1BF
:101790007B689B6A1B79BA7B9A4202D00123FB7358
:1017A00006E07B7B1A467B689B6A9979264B9954A5
:1017B0007B689B6A00225A627B6800229A6231E051
:1017C0007B689B6A1B79BA7B9A4208D07B685B6A0C
:1017D0001B79BA7B9A4202D00123FB7312E07B682B
:1017E0009B6A1B79BA7B9A420CD17B685B6A1B7936
:1017F000BA7B9A4206D07B7B1A467B689B6A9979B2
:10180000114B99547B689B6A7A68526A5A627B686A
:101810005B6A7A68926A9A627B6800225A627B6885
:1018200000229A62FB7B012B09D17B7B1A46064B77
:10183000FF2199547B7B18460021FFF735FE1037B6
:10184000BD4680BD480900206009002080B584B0F5
:1018500000AF454B1B68FB60444B1B68BB60BB681B
:10186000002B0ED0424B1B68FA689A4209D1414BBB
:101870001B78DBB2012B04D83F4B1B78DBB2002B6B
:1018800000D06DE03D4B00221A70FB681B79FB71A4
:10189000BB681B79BB71FB685B79012B09D0344AAB
:1018A000BB681360BB6801225A71B868FFF736FF46
:1018B0002CE0BA79FB799A420CD22D4ABB681360AE
:1018C000F868FFF781FEB868FFF728FFBB680122C0
:1018D0005A711BE0FA79BB799A4216D1284BD3E9A9
:1018E0000001284BD3E90023994208BF90420CD154
:1018F0001F4ABB681360F868FFF766FEB868FFF719
:101900000DFFBB6801225A7100E029E0184B1B68EB
:101910001A79164B1B681B799A420ED1144B1B681F
:101920005B8998B24FF00001164BD3E900231218DF
:1019300043EB01031249C1E90023FB681A68FB6805
:10194000DB689A4205D3FB68DB681B680E4A93424A
:1019500004D0FB689B79184602F040FF02F010FBB0
:101960001037BD4680BD00BF500900204809002047
:101970004C0900201D0500201C0500201E0500202C
:1019800058090020280B0020A5A55A5A80B582B01E
:1019900000AF0F4B1B78DBB20133DAB20C4B1A707D
:1019A0000C4B1B68002B03D1FEF728FD00230AE037
:1019B000084B1B687B60074B1B685B6A054A13601A
:1019C000FEF71CFD7B6818460837BD4680BD00BF8A
:1019D0001D0500204409002080B588B000AFF860E4
:1019E000B9607A603B607A68404B13401B0ABB8346
:1019F0007B68FB76FB68002B01D1FF2372E03B681C
:101A0000002B01D1FF236DE0FB7E402B01D9FF238A
:101A100068E0BB8B132B01D8FF2363E0F868B9683B
:101A20003A6802F0FFFC7861FFF7B0FF38613B696C
:101A3000002B01D1FF2355E03B697A691A603B69AD
:101A4000FA7E1A71BA8B13469B079B1A9B000433CC
:101A50003A681A443B69DA603B69DB68244A1A60D9
:101A60003B694FF0FF321A623B6900225A623B69C0
:101A700000229A627A681F4B13401B0DFB83FB8B7D
:101A8000002B01D10A23FB833B69FA8B5A813B6906
:101A90000022DA613B69FF221A723B6900221A6157
:101AA0003B6900225A613B6900229A613B69FF222F
:101AB000DA71FB7E1846FFF72BFD7B68002B0CDBF1
:101AC0000D4B1B78DBB20133DAB20B4B1A7038695D
:101AD000FFF77AFDFEF792FC02E03B6902225A71A1
:101AE0003B699B7918462037BD4680BD00FF0F003B
:101AF000A5A55A5A0000FF7F1D05002080B582B0C1
:101B000000AF124B7B60124B3B6007E03B681A1D35
:101B10003A607A68111D796012681A603B680D4A54
:101B20009342F3D30C480D494FF000028842B8BFEE
:101B300040F8042BFADBDFF82800016841F470015B
:101B4000016000F08FF90837BD4680BDCC4A00081F
:101B5000000000204804002048040020B823002092
:101B600088ED00E080B400AFFEE700BF80B584B030
:101B700000AF03463A60FB710B46BB7102F0F2F90D
:101B80001A4B1B78042B03D902F0E4F9002328E058
:101B9000164802F0B1F90346FB73144B5B78BB7334
:101BA000134B01221A70FA7BBB7BD118114B83FBBC
:101BB00001235A10CB17D21A13469B001344CA1A9A
:101BC000D3000A4A13440433BB60BB68FA791A7025
:101BD000BB68BA795A70BB683A685A6002F0BAF9C1
:101BE000012318461037BD4680BD00BF7409002090
:101BF000A00900206766666680B582B000AF394BE9
:101C00001B78012B04D101F0A3FA364B00221A7085
:101C1000354B1B78012B04D1FEF790FE324B00228E
:101C20001A704CE002F09EF9304B5B782F4ADB00D3
:101C300013443A46043393E8030082E803002B4B35
:101C40005B785A1C2A4B83FB02135910D317C91A0D
:101C50000B469B000B44D11ACAB2244B5A70234B3B
:101C60001B78013BDAB2214B1A7002F073F93B7812
:101C7000013B032B22D801A252F823F08D1C00084F
:101C8000971C0008A51C0008AF1C00087B781846AC
:101C900002F040FD13E07A787B681046194600F0A8
:101CA0009FFF0CE07B78184602F09AFA07E07A78FA
:101CB0007B681046194602F0A5F800E000BF0B4B08
:101CC0001B78002BAED102F04DF9084B1B78002B8E
:101CD00002D1084B00221A7002F03CF90837BD46C9
:101CE00080BD00BFA1090020A209002074090020C6
:101CF00067666666A009002080B59CB000AF4048CA
:101D0000012100F06DF94FF48070012100F0A4F979
:101D10000023FB603B4B3B613B4B7B610023BB6182
:101D20000223FB6100233B624FF480637B624FF42C
:101D30000063BB624FF40053FB624FF480733B635C
:101D40004FF400337B630023BB630123FB63002359
:101D50003B6400237B6407F10C032C48194601F017
:101D6000B3FE2A48012101F005FFC0237B60032355
:101D70003B720023FB723B1D2548194601F082FC93
:101D80000023BB640023FB6400233B6500237B65C9
:101D900007F14803184600F077FA0023BB650123DA
:101DA00087F85C30012387F85D3000233B66002311
:101DB000BB66022387F86C3007F1580315481946B3
:101DC00000F00EFA134806210122002300F0A0FAC9
:101DD000104807210222002300F09AFA0D48012141
:101DE00000F08CFB0B48012100F06CFB094801213D
:101DF00000F072FA074800F055FB7037BD4680BD11
:101E0000010040004C200140A81300201064024053
:101E1000000002400020014080B485B000AF0346BE
:101E2000FB71FB79054A32F81330FB81FB891846B8
:101E30001437BD465DF8047B704700BFA81300202F
:101E400080B500AF01F0FEF9FEF7F4FF80BD00BFE2
:101E500080B500AF00F0FEFE01F00EFAFFF706F8C5
:101E600080BD00BF80B500AF01F0A8FDFFF744FFC3
:101E700001F026FD00F00EF9FEF7E6FAFFF7E0FFAD
:101E8000FFF7E6FFFEF71EFBFEE700BF80B489B058
:101E900000AF78600023BB6100237B610023FB61FE
:101EA00002233B610023FB600223BB60484B9B681D
:101EB00003F00C03BB61BB69042B07D0082B09D0CE
:101EC000002B3FD17B68434A1A603FE07B68424A5F
:101ED0001A603BE03E4B5B6803F480039B0DFB60A4
:101EE0003B4B5B6803F03F03BB60FB68002B0DD0EE
:101EF000394ABB68B2FBF3F2354B596847F6C073F9
:101F00000B409B0903FB02F3FB610CE0314ABB6809
:101F1000B2FBF3F22E4B596847F6C0730B409B0996
:101F200003FB02F3FB612A4B5B6803F440331B0C99
:101F300001335B003B61FA693B69B2FBF3F27B68FA
:101F40001A6003E07B68234A1A6000BF204B9B683D
:101F500003F0F003BB61BB691B09BB611F4ABB698E
:101F600013441B78DBB27B617B681A687B69DA40BB
:101F70007B685A60164B9B6803F4E053BB61BB69F6
:101F80009B0ABB61154ABB6913441B78DBB27B61BA
:101F90007B685A687B69DA407B689A600C4B9B6867
:101FA00003F46043BB61BB695B0BBB610B4ABB695C
:101FB00013441B78DBB27B617B685A687B69DA402B
:101FC0007B68DA602437BD465DF8047B704700BF4C
:101FD000003802400024F40040787D010000002019
:101FE00080B483B000AF78600B46FB70FB78002BA9
:101FF00006D00949084B1A6B7B6813430B6306E054
:102000000549054B1A6B7B68DB4313400B630C37A8
:10201000BD465DF8047B70470038024080B483B051
:1020200000AF78600B46FB70FB78002B06D00949A7
:10203000084B1A6C7B6813430B6406E00549054B9B
:102040001A6C7B68DB4313400B640C37BD465DF8AC
:10205000047B70470038024080B483B000AF7860E2
:102060000B46FB70FB78002B06D00949084B5A6CD5
:102070007B6813434B6406E00549054B5A6C7B684B
:10208000DB4313404B640C37BD465DF8047B70475F
:102090000038024080B58AB000AF20200121FFF750
:1020A0009FFF4FF480633B62032387F825300123B1
:1020B00087F82430002387F82630012387F827305B
:1020C00007F120032D48194601F0DCFA2B484FF4A4
:1020D000806101F08DFB4FF400733B62022387F8AF
:1020E0002430032387F82530002387F82630012386
:1020F00087F8273007F120032048194601F0C2FA7B
:102100001E480921092201F093FB4FF48070012140
:10211000FFF784FF0023BB820023FB8241F26803A8
:10212000BB610023BB830023BB7707F11403144872
:10213000194602F059FB70233B8001237B80042366
:10214000BB800223BB810023FB814FF480733B8261
:1021500000237B8240F63403BB603B4608481946A7
:1021600002F0CCFB0648012102F0A8FB0448012143
:1021700002F04CFC2837BD4680BD00BF0014024071
:102180000020004080B584B000AF0346FB7197F992
:102190000730002BB8BF5B429BB25B01FB8197F914
:1021A0000730002B05DD0C484FF4806101F020FB67
:1021B00009E009484FF4806101F00CFBFB89C3F58D
:1021C00083530833FB81FB890448194602F010FC55
:1021D0001037BD4680BD00BF001402400020004003
:1021E00080B485B000AF786039600023FB600023C5
:1021F000FB727B685B68FB60FB6823F0407323F431
:102200008073FB603B681B791A023B681B681343B1
:10221000FA681343FB607B68FA685A607B689B68C6
:10222000FB60FA68174B1340FB603B681A693B6818
:10223000DB681A433B689B681A433B685B795B0029
:102240001343FA681343FB607B68FA689A607B6803
:10225000DB6AFB60FB6823F47003FB603B681B7D5B
:10226000013BDAB2FB7A1343FB72FB7A1B05FA6877
:102270001343FB607B68FA68DA621437BD465DF889
:10228000047B7047FDF7FFC080B485B000AF786075
:102290000023FB600E4B5B68FB60FA680D4B13403C
:1022A000FB607B681A687B685B681A437B689B6885
:1022B0001A437B68DB681343FA681343FB60044AE4
:1022C000FB6853601437BD465DF8047B704700BF60
:1022D00000230140E030FCFF80B483B000AF7860A1
:1022E0000B46FB70FB78002B06D07B689B6843F0A5
:1022F00001027B689A6005E07B689B6823F001021D
:102300007B689A600C37BD465DF8047B704700BF60
:1023100080B485B000AF7860084611461A4603467F
:10232000FB700B46BB7013467B700023FB600023E1
:10233000BB60FB78092B23D97B68DB68FB60FB78EB
:10234000A3F10A0213465B001344072202FA03F3C7
:10235000BB60BB68DB43FA681340FB607978FB78AD
:10236000A3F10A0213465B00134401FA03F3BB60B6
:10237000FA68BB681343FB607B68FA68DA601EE0AA
:102380007B681B69FB60FA7813465B0013440722E5
:1023900002FA03F3BB60BB68DB43FA681340FB60DF
:1023A0007978FA7813465B00134401FA03F3BB60B3
:1023B000FA68BB681343FB607B68FA681A61BB78F4
:1023C000062B21D87B685B6BFB60BB785A1E1346DB
:1023D0009B0013441F2202FA03F3BB60BB68DB437C
:1023E000FA681340FB60F978BB785A1E13469B00CD
:1023F000134401FA03F3BB60FA68BB681343FB6044
:102400007B68FA685A6347E0BB780C2B21D87B685D
:102410001B6BFB60BB78DA1F13469B0013441F2223
:1024200002FA03F3BB60BB68DB43FA681340FB604E
:10243000F978BB78DA1F13469B00134401FA03F3C3
:10244000BB60FA68BB681343FB607B68FA681A6379
:1024500022E07B68DB6AFB60BB78A3F10D021346C8
:102460009B0013441F2202FA03F3BB60BB68DB43EB
:10247000FA681340FB60F978BB78A3F10D021346AC
:102480009B00134401FA03F3BB60FA68BB68134373
:10249000FB607B68FA68DA621437BD465DF8047B3E
:1024A000704700BF80B483B000AF78607B689B68E2
:1024B00043F080427B689A600C37BD465DF8047B30
:1024C000704700BF80B483B000AF78600B46FB70EC
:1024D000FB78002B06D07B689B6843F480727B6896
:1024E0009A6005E07B689B6823F480727B689A6041
:1024F0000C37BD465DF8047B704700BF80B483B0E5
:1025000000AF78600B46FB70FB78002B06D07B6831
:102510009B6843F400727B689A6005E07B689B6867
:1025200023F400727B689A600C37BD465DF8047B2B
:10253000704700BF80B483B000AF0346FB710C3717
:10254000BD465DF8047B704780B483B000AF78600F
:102550000B46FB707B68FA781A70012318460C371B
:10256000BD465DF8047B704780B485B000AF7860ED
:1025700039600023FB600AE07B685A1C7A603A6885
:10258000511C396012781A70FB680133FB603B689C
:102590001B78002BF0D1FB6818461437BD465DF858
:1025A000047B704780B586B000AFF8607A603B600E
:1025B0000B46FB7200237B617B68013B7B603B68C1
:1025C000092B10D93B681E4AA2FB0323DB08FA7AC9
:1025D000F86811467A68FFF7E5FF78617B69FA6869
:1025E0001344FB6011E00DE0FB7AF8681946FFF731
:1025F000ABFFFB680133FB607B6901337B617B6868
:10260000013B7B607B68002BEEDC39680C4BA3FB45
:102610000123DA0813469B0013445B00CA1AD3B2A5
:102620003033DBB2F8681946FFF78EFF02467B694C
:1026300013447B617B6918461837BD4680BD00BFD7
:10264000CDCCCCCC90B587B000AFF8607A603B6061
:102650000B46FB7200237B613B68002B03DA3B686F
:102660005B423B6101E03B683B617B68013B7B6017
:102670003B69092B25D93B68002B0FDA3B69314AAE
:10268000A2FB0323DB085B421C46FB7AF868194671
:102690007A682346FFF7D6FF78610DE03B69294A47
:1026A000A2FB0323DB081C46FB7AF86819467A680C
:1026B0002346FFF7C7FF78617B69FA681344FB6024
:1026C00025E03B68002B02DA7B68013B7B600DE074
:1026D000FB7AF8681946FFF737FFFB680133FB60A8
:1026E0007B6901337B617B68013B7B607B68002BEE
:1026F000EEDC3B68002B0ADAF8682D21FFF724FF97
:1027000002467B6913447B61FB680133FB603969D6
:102710000C4BA3FB0123DA0813469B0013445B0018
:10272000CA1AD3B23033DBB2F8681946FFF70CFF90
:1027300002467B6913447B617B6918461C37BD46A2
:1027400090BD00BFCDCCCCCC90B589B002AFF860C5
:102750007A601A460B46FB721346BB7200237B61FC
:102760007B68013B7B60BB6A1B09002B13D0BB6AF3
:102770001B09FA7ABC7A0093F86811467A682346F6
:10278000FFF7E2FF02467B6913447B617B69FA68CD
:102790001344FB6011E00DE0FB7AF8681946FFF77F
:1027A000D3FEFB680133FB607B6901337B617B688F
:1027B000013B7B607B68002BEEDCBB6A03F00F0300
:1027C000092B0BD8BB6ADBB203F00F03DBB230334B
:1027D000DBB2F8681946FFF7B7FE19E0BB7A002BA9
:1027E0000BD0BB6ADBB203F00F03DBB23733DBB2D3
:1027F000F8681946FFF7A8FE0AE0BB6ADBB203F0EF
:102800000F03DBB25733DBB2F8681946FFF79CFEC3
:102810007B6901337B617B6918461C37BD4690BDDF
:1028200090B58BB002AFF860B9607A603B6000236E
:10283000BB6100237B61FB68002B02D0FB68002298
:102840001A70FCE07B681B78252B0BD0FB685A1CA8
:10285000FA607A68511C796012781A707B690133CA
:102860007B61ECE07B6801331B78252B0BD1FB6887
:102870005A1CFA6025221A707B6802337B607B69E0
:1028800001337B61DBE02023FB770023BB777B6890
:1028900001337B607B681B78302B04D13023FB77BE
:1028A0007B6801337B600EE0BB7F1A4692001344C5
:1028B0005B00DAB27B681B781344DBB2303BBB773A
:1028C0007B6801337B607B681B782F2B03D97B6887
:1028D0001B78392BE8D9BA7F7B6913441A46BB6849
:1028E0009A4205D9BB68DAB27B69DBB2D31ABB77EF
:1028F0007B681B78583B202B00F2938001A252F892
:1029000023F000BFDB290008232A0008232A00083F
:10291000232A0008232A0008232A0008232A000863
:10292000232A0008232A0008232A0008232A000853
:102930000D2A000889290008232A0008232A0008F4
:10294000232A0008232A000889290008232A0008CE
:10295000232A0008232A0008232A0008232A000823
:10296000232A0008232A0008232A0008232A000813
:10297000F9290008232A0008A3290008232A0008AF
:10298000232A0008BD290008BC7F3B681A1D3A6055
:102990001B68FA7FF86811462246FFF753FEB861BC
:1029A00042E0BC7F3B681A1D3A601B68FA7FF868FA
:1029B00011462246FFF7F6FDB86135E0BC7F3B6863
:1029C0001A1D3A601B68FA7F0093F8681146224688
:1029D0000023FFF7B9FEB86126E0BC7F3B681A1DF3
:1029E0003A601B68FA7F0093F8681146224601237B
:1029F000FFF7AAFEB86117E03B681A1D3A601B6832
:102A0000F8681946FFF7B0FDB8610DE03B681A1D84
:102A10003A601B68DBB2F8681946FFF795FDB861AC
:102A200002E04FF0FF3325E07B6801337B60BB6938
:102A3000FA681344FB607A69BB6913447B617B6865
:102A40001B78002B04D07A69BB689A42FFF4FAAE77
:102A50007A69BB689A4203D2FB6800221A7008E0C8
:102A6000FB68013BFB60FB6800221A707B69013B3D
:102A70007B617B6918462437BD4690BD80B584B024
:102A800000AFF860B9607A60F8686421BA687B6862
:102A9000FFF7C6FE034618461037BD4680BD00BF8F
:102AA000B0B5A6B000AFF860B9607A60144B07F11A
:102AB00010041D460FCD0FC40FCD0FC42B6823602B
:102AC00007F134031846B9687A68FFF7D7FF034661
:102AD000632B09DD0B4B1B68DB6807F11002104606
:102AE000194600F059F8FEE707F134031846F96873
:102AF00000F052F8034618469837BD46B0BD00BFF7
:102B0000584A00083804002080B582B000AF7860D1
:102B10003960064B1B689B68184679683A68FFF76E
:102B2000BFFF034618460837BD4680BD3804002065
:102B30000FB480B582B000AF07F114033B60386971
:102B40003968FFF7E1FF78607B6818460837BD46B3
:102B5000BDE8804004B0704780B582B000AF7860B7
:102B600039600C4B1B689A683B689A4205D0094B48
:102B70001B68DA683B689A4206D17B68DBB218466C
:102B8000FFF7D8FC7B6801E04FF0FF3318460837A9
:102B9000BD4680BD3804002080B584B000AF7860A9
:102BA00039600023FB6012E07B681B7818463968A7
:102BB000FFF7D2FF0346B3F1FF3F02D14FF0FF33DF
:102BC0000AE0FB680133FB607B6801337B607B6854
:102BD0001B78002BE8D1FB6818461037BD4680BD36
:102BE00080B584B000AF03463960FB71FB79132BCD
:102BF00001D9012326E0FB791B01144A1344FB6031
:102C0000FB685B7903F00F03DBB2022B01D00123D9
:102C100018E0FB68DB88002B13D10D4B1B78DBB26F
:102C20000133DAB20A4B1A70FB683A681A60FB6823
:102C30000122DA80F86800F053FCFDF7DFFB002387
:102C400000E0072318461037BD4680BDA8090020C4
:102C50001D05002080B500AFFDF796FA0C48012154
:102C60000C4A0D4BFEF7B8FE0C480221094A0C4BEA
:102C7000FEF7B2FE0B480321064A0B4BFEF7ACFEF3
:102C80000A480421034A0A4BFEF7A6FE80BD00BF96
:102C9000B52C000803000100A8170020092D00082A
:102CA000A81B00208D2D0008A81F0020252E00083D
:102CB000A823002080B584B000AF78601148FFF7EA
:102CC00037FF7B68BB73BB7B1846002100F092FA8C
:102CD0000020FDF7C7FA0023FB730BE00020FDF78F
:102CE000FFFA002000210022C82300F0D9F9FB7B65
:102CF0000133FB73FB7B092BF0D90020FDF7B2FAFF
:102D0000E1E700BF7C4A000880B584B000AF78607E
:102D10001D48FFF70DFF7B68BB60BB68DBB2184640
:102D2000002100F067FA0020FDF79CFA0123FB73F5
:102D30000CE0FB7B1846FDF757FA0020002100222B
:102D4000642300F0ADF9FB7B0133FB73FB7B042BA9
:102D5000EFD90123FB730FE0FB7BC3F10503DBB26B
:102D60001846FDF77FFA002000210022642300F0BE
:102D700097F9FB7B0133FB73FB7B042BECD9002021
:102D8000FDF770FAC9E700BF904A000880B584B02B
:102D900000AF78602248FFF7CBFE7B68BB60BB6862
:102DA000DBB21846002100F025FA0123FB7312E084
:102DB000FB7B013BDBB21846FDF754FAFB7B184660
:102DC000FDF712FA002000210022642300F068F9C8
:102DD000FB7B0133FB73FB7B042BE9D90123FB73E2
:102DE00016E0FB7BC3F10603DBB21846FDF73AFAA7
:102DF000FB7BC3F10503DBB21846FDF7F5F90020B4
:102E000000210022642300F04BF9FB7B0133FB73AC
:102E1000FB7B042BE5D90020FDF724FABFE700BFB8
:102E2000A44A000880B584B000AF78601648FFF768
:102E30007FFE7B68BB73BB7B1846002100F0DAF98C
:102E40000020FDF70FFA0123FB7316E0FB7B184609
:102E5000FDF7CAF9002000210022642300F020F9C8
:102E6000FB7B1846FDF7FEF90020002100226423B9
:102E700000F016F9FB7B0133FB73FB7B042BE5D9D8
:102E80000020FDF7EFF9D6E7B84A000880B485B016
:102E900000AF786039603B68002B00D164E0354BAF
:102EA0001B68002B06D17B683A681A62314A7B683E
:102EB000136053E02F4B1B68BB603B68FB604AE02C
:102EC000FA68BB681B6AD31AFB60FB68002B2EDA1A
:102ED000BB689B6A002B0ED0BB689B6A7A685A62FB
:102EE000BB689A6A7B689A627B68BA685A62BB68F8
:102EF0007A689A620AE01F4B1A687B685A621D4B17
:102F00001B687A689A621B4A7B6813607B685B6AFD
:102F10001A6AFB681A447B681A627B685B6A7A6883
:102F2000526A116A7A68126A8A1A1A6216E0FB6893
:102F3000002B0DDBBB685B6A002B09D17B68BA688C
:102F40009A62BB687A685A62FA687B681A6205E01E
:102F5000BB685B6ABB60BB68002BB1D17B68022297
:102F60005A71054B01221A701437BD465DF8047B77
:102F7000704700BFA40900201E05002080B483B064
:102F800000AF78607B689B6A002B07D17B685B6A27
:102F9000002B03D1254B00221A603DE07B689B6A21
:102FA000002B14D17B685B6A204A13607B685B6AE4
:102FB0007A68526A116A7A68126A0A441A627B68ED
:102FC0005B6A00229A627B6800225A6224E07B6876
:102FD0005B6A002B07D17B689B6A00225A627B6880
:102FE00000229A6218E07B689B6A7A68526A5A6289
:102FF0007B685B6A7A68926A9A627B685B6A7A68C5
:10300000526A116A7A68126A0A441A627B6800225C
:103010005A627B6800229A627B684FF0FF321A6224
:103020000C37BD465DF8047B704700BFA409002043
:1030300080B582B000AF7860164B1B78DBB2002BF6
:1030400001D0032321E07B68B3F1FF3F01D10223CC
:103050001BE07B68002B01D1002316E00E4B1B7890
:10306000DBB2002B01D015230FE00B4B1B78DBB23A
:103070000133DAB2084B1A70084B1B68184679689E
:10308000FFF704FFFDF7BAF9002318460837BD46DD
:1030900080BD00BF1C0500201D0500205009002038
:1030A00090B585B000AF0446084611461A4623463F
:1030B000FB710346BB710B467B7113467B80214B32
:1030C0001B78DBB2002B01D0032336E0BB793B2B0E
:1030D00006D87B793B2B03D87B88B3F57A7F01D365
:1030E00002232AE0184B1B78DBB2002B01D01523FA
:1030F00023E0FB794FF4616202FB03F1BA791346D6
:103100001B019B1A9B00CA187B7913444FF47A72F7
:1031100002FB03F27B884FF47A7101FB03F303F5A2
:10312000FA730A4981FB03018911DB17CB1A134497
:10313000FB60F868FFF77CFF002318461437BD4694
:1031400090BD00BF1C0500201D050020D34D62105E
:1031500080B582B000AF1A4B1B687B6026E07B68AD
:103160001B7AFF2B02D0786800F040FA7B68DB699D
:10317000002B04D07B68DB69184601F011F97B68ED
:103180004FF0FF321A627B685B6A0D4A13607B68FE
:1031900000225A627868FEF717FA094B1B687B60B9
:1031A0007B68002B02D07B6800229A627B68002B30
:1031B00003D07B681B6A002BD1D00837BD4680BD89
:1031C000A409002080B500AF074B1B78DBB2012BB0
:1031D00006D9064B01221A70054B01221A7001E034
:1031E000FFF7B6FF80BD00BF1D050020A00900202D
:1031F000A109002080B582B000AF03463960FB71A1
:10320000FB79013B054AD35C1846396800F02CFF76
:10321000FB7918460837BD4680BD00BFB0230020AB
:1032200080B582B000AF0346FB71FB79013B044AD5
:10323000D35C184600F0D4FF0837BD4680BD00BF00
:10324000B023002090B583B000AF0023FB710BE0EA
:10325000FC790120002100F0BBFE03461A46054B15
:103260001A55FB790133FB71FB79042BF0D90C372C
:10327000BD4690BDB023002080B582B000AFFDF701
:103280006FFD012001213222054BFDF789FA03462B
:10329000FB71FB791846FDF719FB0837BD4680BD69
:1032A000A532000880B582B000AFFDF771FD03467E
:1032B000FB71FB79002B0BD0084B1B78FA799A42F3
:1032C00006D0FB79013B064AD35C184600F088FF24
:1032D000024AFB7913700837BD4680BDAC2300203D
:1032E000B023002080B485B000AF0023FB73184BDF
:1032F000BB60184B7B6014E0BB687A681A60BB68DF
:10330000FA7B1A71BA685379042161F3030353718C
:10331000BB681033BB607B6810337B60FB7B013381
:10332000FB73FB7B122BE7D9BA685379042161F355
:1033300003035371BB6800221A60BB68FA7B1A71E1
:10334000054B034A1A601437BD465DF8047B70478D
:10335000A8090020B8090020E80A002080B584B040
:1033600000AF03463A60FB710B46BB711A4B1B78EA
:10337000DBB20133DAB2184B1A70184B1B68002B02
:1033800003D1FDF73BF8002322E0144B1B68FB60E0
:10339000124B1B681B68114A1360FDF72FF8FB796D
:1033A00003F00F03D9B2FA68537961F30303537141
:1033B000BB7903F00F03D9B2FA68537961F30713AD
:1033C0005371FB683A681A60FB680022DA60FB6898
:1033D00018461037BD4680BD1D050020E80A0020B4
:1033E00080B584B000AF786039603B4B1B78DBB2AE
:1033F0000133DAB2384B1A707B68DB68FB607B689C
:103400001A793B681A727B685B7923F00F03DBB291
:10341000102B15D1FB68002B03D17B683A68DA606A
:103420004EE002E0FB685B69FB60FB685B69002BB8
:10343000F8D1FB683A685A613B68FA689A613FE0E4
:103440007B685B7923F00F03DBB2202B38D1FB685C
:10345000002B03D17B683A68DA6031E0FB681A79A7
:103460003B681B799A4209D97B683A68DA603B6805
:10347000FA685A61FB683A689A6121E0FB685B6907
:10348000BB600BE0BB681A793B681B799A4200D994
:1034900007E0BB68FB60BB685B69BB60BB68002B77
:1034A000F0D1FB683A685A613B68FA689A613B68F8
:1034B000BA685A61BB68002B02D0BB683A689A614F
:1034C0003B6802225A71054B01221A70FCF796FFE5
:1034D0001037BD4680BD00BF1D0500201E05002021
:1034E00080B584B000AF78607B68DB68FB60FB6808
:1034F000002B00D174E0FB685A697B68DA607B6856
:10350000DB68002B03D07B68DB6800229A61FB68D4
:1035100000225A61FB68FF221A72FB681B6AB3F132
:10352000FF3F02D0F868FFF729FD7B685B7903F065
:103530000F03DBB2022B0DD17B681A68FB681A619E
:103540007B6800221A607B68DB88013B9AB27B684B
:10355000DA8039E07B685B7903F00F03DBB2032B81
:1035600021D17B681B68BB60BB681A68BB68DB88BD
:103570009B0013441A68FB681A61BB68DB8801333F
:103580009AB2BB68DA80BB689B89013B9AB2BB6880
:103590009A81BB68DA88BB685B899A4214D1BB68A0
:1035A0000022DA8010E07B685B7903F00F03DBB266
:1035B000012B09D17B68DB88013B9AB27B68DA80FA
:1035C000FB684FF0FF321A61074B1B68FA689A429A
:1035D00003D1FB6801225A7102E0F868FDF7F4FF9D
:1035E0001037BD4680BD00BF5009002080B485B0B3
:1035F00000AF78607B681B7A1B01214A1344FB6093
:103600007B685B69002B07D17B689B69002B03D12A
:10361000FB680022DA602BE07B689B69002B0BD1F2
:103620007B685B6900229A617B685A69FB68DA6093
:103630007B6800225A611BE07B685B69002B07D125
:103640007B689B6900225A617B6800229A610FE0C7
:103650007B689B697A6852695A617B685B697A68A2
:1036600092699A617B6800229A617B6800225A61A4
:103670007B68FF221A721437BD465DF8047B7047E1
:10368000A809002080B487B000AF786039600023BB
:103690007B6100233B610023FB6000237B6176E0BC
:1036A0007B69012202FA03F33B613B681A683B69BC
:1036B0001340FB60FA683B699A4265D17B681A68DF
:1036C0007B695B00194603238B40DB431A407B6810
:1036D0001A607B681A683B681B7919467B695B0036
:1036E00001FA03F31A437B681A603B681B79012BCC
:1036F00003D03B681B79022B2ED17B689A687B69CB
:103700005B00194603238B40DB431A407B689A60B9
:103710007B689A683B685B7919467B695B0001FAB4
:1037200003F31A437B689A607B685A687B699BB293
:10373000194601238B40DB431A407B685A607B6843
:103740005B683A68927911467A6992B201FA02F29C
:1037500092B21A437B685A607B68DA687B699BB2D5
:103760005B00032101FA03F3DB431A407B68DA6054
:103770007B68DA683B68DB7919467B695B0001FA94
:1037800003F31A437B68DA607B6901337B617B69F1
:103790000F2B85D91C37BD465DF8047B704700BFF1
:1037A00080B485B000AF78600B467B800023FB734C
:1037B0007B681A697B881340002B02D00123FB73BE
:1037C00001E00023FB73FB7B18461437BD465DF810
:1037D000047B704780B483B000AF78600B467B8079
:1037E0007B687A881A830C37BD465DF8047B704786
:1037F00080B483B000AF78600B467B807B687A88AA
:103800005A830C37BD465DF8047B704780B483B0A3
:1038100000AF78600B467B807B685A697B885A4092
:103820007B685A610C37BD465DF8047B704700BF6A
:1038300080B485B000AF78600B467B8013467B7008
:103840000023FB600023BB607B787A8802F00702CC
:1038500092009340FB607B88DB089BB218467B8814
:10386000DB089BB21A467B68083253F822207B881B
:1038700003F007039B0019460F238B40DB4302EA4A
:1038800003017B6800F1080243F822107B88DB0803
:103890009BB21A467B68083253F82220FB68134318
:1038A000BB607B88DB089BB21A467B680832B9682C
:1038B00043F822101437BD465DF8047B704700BF03
:1038C00080B58AB000AF20200121FEF789FB4FF4BC
:1038D00080733B62022387F82430032387F8253066
:1038E000002387F82630012387F8273007F12003CB
:1038F0001F481946FFF7C6FE1D4808210922FFF799
:1039000097FF80200121FEF789FB5323BB82002310
:10391000FB8244F62063BB610023BB830023BB779B
:1039200007F114031348194600F05EFF70233B8033
:1039300001237B800423BB800223BB810023FB8106
:103940004FF480733B8200237B824FF4AF63BB60F4
:103950003B460848194600F0D1FF0648012100F017
:10396000ADFF0448012101F051F82837BD4680BD64
:1039700000140240001C004080B582B000AF034636
:10398000FB80FB8807EE903AF8EEE77A9FED087A25
:1039900067EE877A9FED077A77EE877AFCEEE77A13
:1039A000054817EE901A01F023F80837BD4680BD90
:1039B00011C731410000FA43001C004080B500AF40
:1039C000154A154BD3F8883043F47003C2F8883099
:1039D000124A124B1B6843F0010313600F4B002285
:1039E0009A600E4A0D4B1B6823F0847323F48033D6
:1039F00013600A4B0A4A5A60084A084B1B6823F4B2
:103A000080231360054B0022DA6000F00BF8024BB4
:103A10004FF000629A6080BD00ED00E00038024087
:103A20001030002480B400AF234A234B1B6C43F0BA
:103A300080531364214A214B1B6843F48043136075
:103A40001D4A1D4B9B6893601B4A1B4B9B6843F4AC
:103A500000439360184A184B9B6843F4A05393604B
:103A6000154B174A5A60144A134B1B6843F0807376
:103A7000136000BF104B1B6803F00073002BF9D0DC
:103A8000104B40F205721A600B4A0B4B9B6823F0F7
:103A900003039360084A084B9B6843F0020393605A
:103AA00000BF054B9B6803F00C03082BF9D1BD4602
:103AB0005DF8047B704700BF003802400070004092
:103AC00010540007003C024080B485B000AF78601D
:103AD00039600023FB607B681B68FB60FA68244B3D
:103AE0001340FB603B681A683B68DB681A433B681D
:103AF0005B691A433B689B691A433B68DB691A435D
:103B00003B681B6A1A433B685B6A1A433B689B6AC3
:103B10001A433B685B6B1A433B689B6B1343FA6821
:103B20001343FB607B68FA681A607B685B69FB6023
:103B3000FB6823F00703FB603B68DA6A3B681B6B9A
:103B40001343FA681343FB607B68FA685A613B6869
:103B50001A697B685A603B685A687B689A603B6860
:103B60009A687B68DA601437BD465DF8047B70475D
:103B70003F801CF080B483B000AF78600B46FB70D0
:103B8000FB78002B06D07B681B6843F001027B6842
:103B90001A6005E07B681B6823F001027B681A60ED
:103BA0000C37BD465DF8047B704700BF80B584B01C
:103BB00000AF78600B467B8013467B707B68002BE0
:103BC00002D07B88002B01D1FF2362E0334B1B78AE
:103BD000DBB20133DAB2314B1A700023FB7352E0CF
:103BE000FB7B012202FA03F31A462D4B1B6813409C
:103BF000002B45D1FB7B012202FA03F31A46284B26
:103C00001B681343264A1360FCF7F8FBFB7B254A2D
:103C10001B0113447A681A60FB7B224A1B01134480
:103C2000FA7B1A71FB7B1F4A1B0113440022DA80C6
:103C3000FB7B1C4A1B011344083300221A80FB7BC8
:103C4000184A1B01134408337A885A80FB7B154AB3
:103C50001B011344083300229A80FB7B1B01114A8D
:103C600013447A78032011461A46FFF777FBB860B1
:103C7000BB68002B01D1FF230BE0BB681B7908E078
:103C8000FB7B0133FB73FB7B012BA9D9FCF7B6FB54
:103C9000FF2318461037BD4680BD00BF1D0500201C
:103CA0000C0B0020EC0A002080B588B000AF034662
:103CB000B9607A60FB734F4B1B78DBB2002B04D0EA
:103CC0007B6803221A7000238FE0FB7B132B04D93F
:103CD0007B6801221A70002387E0FB7B1B01464AA8
:103CE0001344FB61FB695B7903F00F03DBB2032B29
:103CF00004D07B6801221A70002376E03F4B1B78CA
:103D0000DBB2002B04D07B6815221A7000236CE014
:103D1000FB691B68BB61394B1B78DBB20133DAB23C
:103D2000364B1A70BB699B89002B23D0BB691A687C
:103D3000BB69DB889B0013441B687B61BB69DB8824
:103D400001339AB2BB69DA80BB699B89013B9AB2A5
:103D5000BB699A81BB69DA88BB695B899A4202D1E7
:103D6000BB690022DA80FCF749FB7B6800221A70ED
:103D70007B693AE0FCF742FB214B1B683B61BB6867
:103D8000002B0ED1F8693969FFF72AFB3B691B69E3
:103D90007B613B6900221A617B6800221A707B6993
:103DA00023E0164B1B78DBB20133DAB2134B1A70E7
:103DB000F8693969FFF714FB3869B968FFF766F8E5
:103DC000FCF71CFB3B691B69002B04D17B680522B7
:103DD0001A70002309E03B691B697B613B69002283
:103DE0001A617B6800221A707B6918462037BD462D
:103DF00080BD00BF1C050020A80900201D05002073
:103E00005009002080B584B000AF03463960FB71D3
:103E1000FB79132B01D9012342E0FB791B01224AD4
:103E20001344FB60FB685B7903F00F03DBB2032BE9
:103E300001D0012334E0FB681B68BB60BB689A8932
:103E4000BB685B899A4201D1082329E0174B1B7894
:103E5000DBB20133DAB2154B1A70BB681A68BB6863
:103E60001B899B0013443A681A60BB681B890133A5
:103E70009AB2BB681A81BB689B8901339AB2BB684E
:103E80009A81BB681A89BB685B899A4202D1BB6878
:103E900000221A81F868FFF723FBFCF7AFFA002332
:103EA00018461037BD4680BDA80900201D0500201A
:103EB00080B582B000AF03463960FB710D4B1B78B3
:103EC000DBB2002B0CD0FB79042019463A68FDF7D1
:103ED0004DFE0346002B01D1122307E0002305E02D
:103EE000FB7918463968FFF78DFF034618460837F7
:103EF000BD4680BD1D05002090B482B000AF786043
:103F000000247B6802B472B6197801F101011970BE
:103F100062B6A1F101010B0002BCDCB223461846D7
:103F20000837BD4690BC704790B482B000AF78604F
:103F300000247B6802B472B61978A1F101011970EE
:103F400062B60B0002BCDCB2234618460837BD46F9
:103F500090BC704780B400AF62B600BFBD465DF84C
:103F6000047B704780B400AF72B600BFBD465DF8F9
:103F7000047B7047A0F11C0080F30988704700BFE4
:103F8000024B1B68024A1168196070473C0400200C
:103F9000400400200B4B19680B4A126891420AD06A
:103FA000EFF3098020E9F00F08601A601068B0E8AC
:103FB000F00F80F30988054B002018704EF0040EB6
:103FC00070470000500900204C0900201D0500200A
:103FD00080B584B000AF03460A46FB711346BB713F
:103FE0001F4B1B78DBB20133DAB21D4B1A70002372
:103FF000FB732AE01B4B9B68FA7B012101FA02F25A
:104000001340002B1ED1174B9B68FA7B012101FA4C
:1040100002F21343134A9360124B1B68B979FA7B7F
:1040200001FA02F213430F4A13600E4B5B68F979F1
:10403000FA7B01FA02F213430A4A5360FCF7DEF9F5
:10404000FB7B08E0FB7B0133FB73FB7B1F2BD1D990
:10405000FCF7D4F9FF2318461037BD4680BD00BFDA
:104060001D050020100B002080B58AB000AF03466C
:104070003960FB71554B1B78DBB2002B01D0032359
:10408000A0E0534B1B78DBB2002B01D0152399E045
:10409000FB791F2B01D9012394E04E4B9B68FA79E1
:1040A000012101FA02F21340002B01D1012389E022
:1040B000474B1B78DBB20133DAB2454B1A70454BE4
:1040C0007B627B6A1B68FA79012101FA02F21340D4
:1040D000002B0FD07B6A1A687B6A5B68F979012034
:1040E00000FA01F10B40DB431A407B6A1A60FCF7CF
:1040F00085F966E0384B1B683B623B68002B2ED18C
:10410000FB79012202FA03F31A4607F10C03184661
:104110001146022200F0DEF83B6A02225A712F4B50
:1041200001221A70FCF76AF93B6A0022DA61284B17
:104130001B78DBB20133DAB2254B1A707B6A1A683E
:10414000FB79012101FA03F319467B6A5B680B4096
:10415000DB431A407B6A1A60FCF750F931E0FB79C7
:10416000012202FA03F31A4607F10C03184611461E
:10417000022200F0AFF8386A3968FEF787FEFCF7D4
:104180003DF93B6ADB69002B01D105231AE03B6A4C
:104190000022DA610E4B1B78DBB20133DAB20C4B32
:1041A0001A707B6A1A68FB79012101FA03F3194638
:1041B0007B6A5B680B40DB431A407B6A1A60FCF742
:1041C0001DF9002318462837BD4680BD1C05002078
:1041D0001D050020100B0020500900201E050020A6
:1041E00080B584B000AF0346FB71384BBB60FB79F0
:1041F0001F2B01D9012364E0BB689B68FA79012178
:1042000001FA02F21340002B01D1012359E0BB68EF
:104210001B68FA79012101FA02F21340002B01D048
:1042200000234EE0BB681B68FA79012101FA02F213
:104230001A43BB681A60264B1B78DBB20133DAB233
:10424000234B1A70BB68DB68FB6034E0FB681B7CA7
:10425000002B17D1FB689A68BB681B681A40FB6883
:104260009B689A4224D1F86800F070F8F860BB6847
:104270005B68FA79012101FA02F21340002B00D0A9
:104280001CE018E0FB689A68BB681B681340002BB1
:104290000ED0F86800F05AF8F860BB685B68FA79ED
:1042A000012101FA02F21340002B00D006E002E0E7
:1042B000FB681B68FB60FB68002BC7D1FCF79EF80E
:1042C000002318461037BD4680BD00BF100B0020EC
:1042D0001D05002080B487B000AFF860B9601346B8
:1042E000FB71184B7B61184B1B68FA68DA61164B3F
:1042F0001A68FB68DA60FB68BA689A60FB68FA794A
:104300001A747B691B69002B09D1FB6800221A60B3
:10431000FB6800225A607B69FA68DA600AE07B6910
:104320001B69FA681A607B691A69FB685A60FB6846
:1043300000221A607B69FA681A611C37BD465DF875
:10434000047B7047100B00205009002080B584B01A
:1043500000AF7860786800F023F87B68DB68FB606A
:10436000FB681B6AB3F1FF3F02D0F868FEF706FE58
:10437000FB684FF0FF32DA61084B1B68FA689A421B
:1043800003D1FB6801225A7102E0F868FDF71CF9BD
:104390007B681B6818461037BD4680BD5009002059
:1043A00080B483B000AF78607B681B68002B0AD1B3
:1043B0007B685B68002B06D1194B0022DA60184B32
:1043C00000221A6123E07B681B68002B08D17B6800
:1043D0005B68134A13617B685B6800221A6016E011
:1043E0007B685B68002B08D17B681B680C4AD36034
:1043F0007B681B6800225A6009E07B681B687A684A
:1044000052685A607B685B687A6812681A607B68D9
:10441000DB680022DA610C37BD465DF8047B70472B
:10442000100B002080B487B000AFF860B9607A60EC
:104430007B687B617B691A1F7A614FF080721A601A
:104440007B691A1F7A61FA681A607B696FF0010252
:104450001A607B69143B7B61BA687B691A607B696F
:10446000203B7B617B6918461C37BD465DF8047BA9
:10447000704700BF80B500AF1F4B1B78DBB2013324
:10448000DAB21D4B1A701D4BD3E90023013243F100
:1044900000031A49C1E90023194B1B68002B10D0F7
:1044A000174B1B681B6A012B05D9154B1B681A6A31
:1044B000013A1A6205E0124B1B6800221A62FEF7ED
:1044C00081FE104B1B68002B10D00E4B1B685B68E5
:1044D000012B05D90B4B1B685A68013A5A6005E05D
:1044E000084B1B6800225A60FCF764FA064B012255
:1044F0001A70FBF783FF80BD1D050020280B0020EC
:10450000A4090020500500201E05002080B485B0BD
:1045100000AF78600023FB730023BB730F237B7312
:104520007B68DB78002B38D0264BDB68DB4303F459
:10453000E0631B0AFB73FB7BC3F10403BB737A7B51
:10454000FB7B42FA03F37B737B685B781A46BB7B89
:1045500002FA03F3FB737B689A787B7B1340DAB231
:10456000FB7B1343FB73FB7B1B01FB73164A7B68CE
:104570001B781344FA7B83F80023134A7B681B786B
:104580005B09DBB218467B681B7803F01F0301212F
:1045900001FA03F342F820300FE00B497B681B78E7
:1045A0005B09DBB218467B681B7803F01F0301220E
:1045B0009A4000F1200341F823201437BD465DF8EE
:1045C000047B704700ED00E000E100E080B584B0BE
:1045D00000AF0346FB800B46BB801346FB70FA8896
:1045E000BB889A4201D9FF231BE0FB78012B04D042
:1045F000FB78022B01D0FF2313E0FB780120194642
:104600000022FEF7ABFEF860FB68002B01D1FF2310
:1046100007E0FB68FA88DA80FB68BA881A81FB68D1
:104620001B7918461037BD4680BD00BF80B584B0E9
:1046300000AF03463960FB71324B1B78DBB2002BB5
:1046400001D003235AE0FB79132B01D9012355E054
:10465000FB791B012C4A1344FB60FB685B7903F078
:104660000F03DBB2012B01D0012347E0274B1B785E
:10467000DBB2002B01D0152340E0244B1B78DBB2CA
:104680000133DAB2214B1A70FB68DB88002B09D0AA
:10469000FB68DB88013B9AB2FB68DA80FBF7AEFE71
:1046A00000232BE0FBF7AAFE194B1B68BB603B689D
:1046B000002B08D1F868B968FEF792FEBB680022AB
:1046C0001A6100231AE0114B1B78DBB20133DAB216
:1046D0000E4B1A70F868B968FEF782FEB868396840
:1046E000FEF7D4FBFBF78AFEBB681B69002B01D1E8
:1046F000052303E0BB6800221A6100231846103727
:10470000BD4680BD1C050020A80900201D05002015
:104710005009002080B584B000AF0346FB71FB79DF
:10472000132B01D9012328E0FB791B01154A1344FF
:10473000FB60FB685B7903F00F03DBB2012B01D058
:1047400001231AE0FB68DA88FB681B899A4201D1D1
:10475000062312E00C4B1B78DBB20133DAB20A4BB2
:104760001A70FB68DB8801339AB2FB68DA80F8685C
:10477000FEF7B6FEFBF742FE002318461037BD4693
:1047800080BD00BFA80900201D05002080B582B0B3
:1047900000AF0346FB710D4B1B78DBB2002B0CD036
:1047A000FB79012019460022FDF7E0F90346002BB2
:1047B00001D1122306E0002304E0FB791846FFF73D
:1047C000A9FF034618460837BD4680BD1D050020D9
:1047D00080B483B000AF7860FEE700BF80B483B0E0
:1047E00000AF0346FB71FEE780B485B000AF786090
:1047F00039600023FB817B681B88FB817B68284A2A
:10480000934213D07B68274A93420FD07B68B3F161
:10481000804F0BD07B68244A934207D07B68234AA1
:10482000934203D07B68224A934208D1FB8923F04C
:104830007003FB813B685A88FB891343FB817B68CB
:104840001C4A93420CD07B681B4A934208D0FB89D8
:1048500023F44073FB813B681A89FB891343FB8176
:104860007B68FA891A803B685A687B68DA623B6821
:104870001A887B681A857B68094A934203D07B6853
:10488000084A934204D13B689B7A9AB27B681A86A5
:104890007B6801229A821437BD465DF8047B70471D
:1048A00000000140000401400004004000080040F6
:1048B000000C0040001000400014004080B483B0A1
:1048C00000AF78600B46FB70FB78002B08D07B684C
:1048D0001B889BB243F001039AB27B681A8007E001
:1048E0007B681B889BB223F001039AB27B681A8015
:1048F0000C37BD465DF8047B704700BF80B485B0BF
:1049000000AF7860396000237B810023FB810023A6
:10491000BB817B681B8C9BB223F001039AB27B683E
:104920001A847B681B8CFB817B689B88BB817B68BE
:104930001B8B7B817B8923F070037B817B8923F038
:1049400003037B813B681A887B8913437B81FB8946
:1049500023F00203FB813B689A89FB891343FB81A7
:104960003B685A88FB891343FB817B681E4A93424C
:1049700003D07B681D4A934223D1FB8923F00803AF
:10498000FB813B68DA89FB891343FB81FB8923F0B8
:104990000403FB813B689A88FB891343FB81BB8935
:1049A00023F48073BB81BB8923F40073BB813B6814
:1049B0001A8ABB891343BB813B685A8ABB8913435C
:1049C000BB817B68BA899A807B687A891A833B6845
:1049D0009A687B685A637B68FA891A841437BD46E3
:1049E0005DF8047B704700BF0000014000040140F7
:1049F00080B483B000AF786039607B683A685A63EE
:104A00000C37BD465DF8047B704700BF80B483B0AF
:104A100000AF78600B46FB70FB78002B0CD07B68F6
:104A2000B3F844309BB26FEA43436FEA53439AB200
:104A30007B68A3F8442009E07B68B3F844309BB25C
:104A4000C3F30E039AB27B68A3F844200C37BD462B
:104A50005DF8047B704700BF737464696F2E633A1E
:104A600020696E637265617365204D41585F5354D0
:104A700052494E475F53495A450A0D004C61756EC5
:104A80006368696E67204C65645461736B300D0018
:104A90004C61756E6368696E67204C656454617320
:104AA0006B310D004C61756E6368696E67204C65F3
:104AB000645461736B320D004C61756E6368696E8E
:0C4AC00067204C65645461736B330D007B
:104ACC0000000000010203040102030406070809A8
:104ADC0000000000000000000100000000000000C9
:104AEC0000000000000000000000000000000000BA
:104AFC0000000000000000000000000000000000AA
:104B0C000000000000000000000000000000000099
:104B1C000000000000000000000000000000000089
:104EFC0000000000000000001000002004ED00E0A5
:084F0C0000000010FCFFFFFF94
:0400000508000000EF
:00000001FF
