:020000040800F2
:100000000008002089010008E1010008E101000862
:10001000E1010008E1010008E10100080000000022
:10002000000000000000000000000000E1010008E6
:10003000E101000800000000E1010008E101000802
:10004000E1010008E1010008E1010008E101000808
:10005000E1010008E1010008E1010008E1010008F8
:10006000E1010008E1010008E1010008E1010008E8
:10007000E1010008E1010008E1010008E1010008D8
:10008000E1010008E1010008E1010008E1010008C8
:10009000E1010008E1010008E1010008E1010008B8
:1000A000E1010008E1010008E1010008E1010008A8
:1000B000E1010008E1010008E1010008E101000898
:1000C000E1010008E1010008E1010008E101000888
:1000D000E1010008E1010008E1010008E101000878
:1000E000E1010008E1010008E1010008E101000868
:1000F000E1010008E1010008E1010008E101000858
:10010000E1010008E1010008E1010008E101000847
:10011000E1010008E1010008E1010008E101000837
:10012000E1010008E1010008E1010008E101000827
:10013000E1010008E1010008E1010008E101000817
:10014000E1010008E1010008E1010008E101000807
:10015000E1010008E1010008E1010008E1010008F7
:10016000E1010008E1010008E1010008E1010008E7
:10017000E1010008E1010008E1010008E1010008D7
:10018000E1010008E101000880B582B000AF0F4B2B
:100190007B600F4B3B6007E03B681A1D3A607A6852
:1001A000111D796012681A603B680A4A9342F3D3C2
:1001B00009480A494FF000028842B8BF40F8042BB2
:1001C000FADB00F0EFF80837BD4680BDFC060008FA
:1001D000000000200000002000000020000000209F
:1001E00080B400AFFEE700BF80B584B000AF8020D0
:1001F000012100F003F94FF48070012100F0FEF8B6
:100200000C23BB6001233B730023BB730023FB73F0
:100210004FF4A0633B6001233B710023BB710023BB
:10022000FB7107F108030648194600F005F93B4643
:100230000448194600F000F91037BD4680BD00BFE4
:10024000001C02400020024080B582B000AF03468F
:10025000FB71FB79012B04D11648042100F07AF9D7
:1002600025E0FB79022B04D11248082100F072F935
:100270001DE0FB79032B05D10F484FF4807100F08E
:1002800069F914E0FB79042B05D10B484FF4806128
:1002900000F060F90BE0FB79002B08D105480C2138
:1002A00000F058F904484FF4A06100F053F9083702
:1002B000BD4680BD001C02400020024080B582B0D7
:1002C00000AF0346FB71FB79012B04D116480421D2
:1002D00000F04EF925E0FB79022B04D112480821E9
:1002E00000F046F91DE0FB79032B05D10F484FF4D0
:1002F000807100F03DF914E0FB79042B05D10B4827
:100300004FF4806100F034F90BE0FB79002B08D149
:1003100005480C2100F02CF904484FF4A06100F0CE
:1003200027F90837BD4680BD001C0240002002406E
:1003300080B582B000AF0346FB71FB79012B04D17D
:100340001648042100F022F925E0FB79022B04D1A4
:100350001248082100F01AF91DE0FB79032B05D1A2
:100360000F484FF4807100F011F914E0FB79042B71
:1003700005D10B484FF4806100F008F90BE0FB79E0
:10038000002B08D105480C2100F000F904484FF477
:10039000A06100F0FBF80837BD4680BD001C02409C
:1003A0000020024080B582B000AF00F001F9FFF7F5
:1003B0001BFF0020FFF782FF0320FFF745FF01230B
:1003C0007B6016E07B68DBB21846FFF73DFF7B6879
:1003D000DBB21846FFF772FF7B68DBB21846FFF707
:1003E000A7FF7B68DBB21846FFF768FF7B68013325
:1003F0007B607B68052BE5DDDBE700BF80B483B065
:1004000000AF78600B46FB70FB78002B06D00949E3
:10041000084B1A6B7B6813430B6306E00549054BD9
:100420001A6B7B68DB4313400B630C37BD465DF8EA
:10043000047B70470038024080B487B000AF78601A
:10044000396000237B6100233B610023FB600023B4
:100450007B6176E07B69012202FA03F33B613B6832
:100460001A683B691340FB60FA683B699A4265D1A0
:100470007B681A687B695B00194603238B40DB436A
:100480001A407B681A607B681A683B681B791946BA
:100490007B695B0001FA03F31A437B681A603B68CF
:1004A0001B79012B03D03B681B79022B2ED17B6873
:1004B0009A687B695B00194603238B40DB431A4033
:1004C0007B689A607B689A683B685B7919467B69B0
:1004D0005B0001FA03F31A437B689A607B685A68F1
:1004E0007B699BB2194601238B40DB431A407B6832
:1004F0005A607B685B683A68927911467A6992B271
:1005000001FA02F292B21A437B685A607B68DA6899
:100510007B699BB25B00032101FA03F3DB431A40C2
:100520007B68DA607B68DA683B68DB7919467B694F
:100530005B0001FA03F31A437B68DA607B690133DD
:100540007B617B690F2B85D91C37BD465DF8047B29
:10055000704700BF80B483B000AF78600B467B80EB
:100560007B687A881A830C37BD465DF8047B704738
:1005700080B483B000AF78600B467B807B687A885C
:100580005A830C37BD465DF8047B704780B483B056
:1005900000AF78600B467B807B685A697B885A4045
:1005A0007B685A610C37BD465DF8047B704700BF1D
:1005B00080B500AF114A114B1B6843F00103136073
:1005C0000E4B00229A600D4A0C4B1B6823F084737B
:1005D00023F480331360094B094A5A60074A074BDA
:1005E0001B6823F480231360044B0022DA6000F0C0
:1005F0000BF8044B4FF000629A6080BD0038024057
:100600001030002400ED00E080B483B000AF002380
:100610007B6000233B60354A344B1B6843F48033D6
:100620001360324B1B6803F400333B607B6801337B
:100630007B603B68002B03D17B68B3F5A06FF0D1E2
:100640002A4B1B6803F40033002B02D001233B60CC
:1006500001E000233B603B68012B42D1234A234B3E
:100660001B6C43F080531364214A214B1B6843F4F5
:10067000804313601D4A1D4B9B6893601B4A1B4BB4
:100680009B6843F400439360184A184B9B6843F4FB
:10069000A0539360154B174A5A60144A134B1B68BA
:1006A00043F08073136000BF104B1B6803F00073AE
:1006B000002BF9D0104B40F205621A600B4A0B4B2D
:1006C0009B6823F003039360084A084B9B6843F040
:1006D0000203936000BF054B9B6803F00C03082BDB
:1006E000F9D10C37BD465DF8047B704700380240F5
:0C06F0000070004008544007003C02402D
:0400000508000000EF
:00000001FF
