:020000040800F2
:1000000010130020351300088D1300088D1300080D
:100010008D1300088D1300088D13000800000000E8
:100020000000000000000000000000008D13000828
:100030008D13000800000000412400082129000859
:100040008D1300088D1300088D1300088D13000810
:100050008D1300088D1300088D1300088D13000800
:100060008D1300088D1300088D1300088D130008F0
:100070008D1300088D1300088D1300088D130008E0
:100080008D1300088D1300088D1300088D130008D0
:100090008D1300088D1300088D1300088D130008C0
:1000A0008D1300088D1300088D1300088D130008B0
:1000B0008D1300088D1300088D1300088D130008A0
:1000C0008D1300088D1300088D1300088D13000890
:1000D0008D1300088D1300088D1300088D13000880
:1000E0008D1300088D1300088D1300088D13000870
:1000F0008D1300088D1300088D1300088D13000860
:100100008D1300088D1300088D1300088D1300084F
:100110008D1300088D1300088D1300088D1300083F
:100120008D1300088D1300088D1300088D1300082F
:100130008D1300088D1300088D1300088D1300081F
:100140008D1300088D1300088D1300088D1300080F
:100150008D1300088D1300088D1300088D130008FF
:100160008D1300088D1300088D1300088D130008EF
:100170008D1300088D1300088D1300088D130008DF
:100180008D1300088D13000880B582B000AF802069
:10019000012101F09BF90C233B6001233B710223F9
:1001A0007B710023BB710023FB713B460C48194651
:1001B00001F066FF4FF48070012101F087F94FF4E0
:1001C000A0633B6001233B710023BB710023FB71E3
:1001D0003B460448194601F053FF0837BD4680BD31
:1001E000001C02400020024080B582B000AF0346F0
:1001F000FB71FB79042B2DD801A252F823F000BF2C
:100200001502000829020008330200083D02000818
:100210004902000811480C2101F0DAFF10484FF4A0
:10022000A06101F0D5FF15E00C48042101F0D0FFDA
:1002300010E00A48082101F0CBFF0BE008484FF41A
:10024000807101F0C5FF05E005484FF4806101F0C1
:10025000BFFF00BF0837BD4680BD00BF001C024085
:100260000020024080B582B000AF0346FB71FB79ED
:10027000042B2DD801A252F823F000BF91020008F0
:10028000A5020008AF020008B9020008C502000874
:1002900011480C2101F0AAFF10484FF4A06101F0B1
:1002A000A5FF15E00C48042101F0A0FF10E00A486A
:1002B000082101F09BFF0BE008484FF4807101F02A
:1002C00095FF05E005484FF4806101F08FFF00BF06
:1002D0000837BD4680BD00BF001C02400020024020
:1002E00080B400AF0C4A0D4B1A600B4BC8330B4A5D
:1002F00053600B4B084A1A60094B1B6800221A60B6
:10030000074B1B6800225A60054B1B6800229A604D
:10031000BD465DF8047B704710000020DC00002023
:10032000D800002080B500AF0E4B1B78DBB2012B4C
:1003300010D10D4B1B78012B01D101F02BF80B4B89
:100340001B78DBB2012B01D100F09CFE054B002293
:100350001A7006E0034B1B78DBB2013BDAB2014BAB
:100360001A7080BDE500002068050020E60000202E
:1003700080B500AF154B164A1A60164B07221A605B
:10038000154A154B1B6843F07F431360134A134B08
:100390001B686FEA03436FEA1343136000F0FEFA31
:1003A00001F09EFCFFF79CFF0D4B1B78DBB2013385
:1003B000DAB20B4B1A700B48002144F240020A4B90
:1003C00000F026FF084802F02BF880BD14E000E0A2
:1003D0003F90020010E000E01CED00E020ED00E0A6
:1003E000E5000020792B00080805002080B500AF4B
:1003F000094B0A4A1A60084B1B68094A1360064BEE
:100400001B6801225A71044B1B68184600F0A2FDBC
:10041000FFF788FF80BD00BF1805002020010020E5
:100420001405002090B587B000AF0346FB71FA7940
:100430006D4913465B001344DB000B445B68FB60B3
:10044000FB68002B00D1CCE0684B1B78DBB201339A
:10045000DAB2664B1A70664B1B68002B09D1FA7929
:1004600013465B001344DB005F4A1344604A136089
:10047000B5E05F4B1B687B61FB683B61ABE03A69B1
:100480007B695B68D31A3B613B69002B7CDA7B6933
:100490005B69002B28D07B695969FA7913465B00A8
:1004A0001344DB00504A13440B61FA797B695969A4
:1004B0004D4813465B001344DB000344103359607E
:1004C000FA79494913465B001344DB000B441033AF
:1004D0007A691A60FA7913465B001344DB00424ADA
:1004E0001A447B695A611DE0FA79414B19683E480C
:1004F00013465B001344DB000344103319603C4B8C
:100500001968FA7913465B001344DB00364A13443A
:100510004B61FA7913465B001344DB00324A134403
:10052000334A1360FA79F9792F480B465B000B4484
:10053000DB00034410331B6859683B6919442A489F
:1005400013465B001344DB0003445960FA792649E3
:1005500013465B001344DB000B4410331968FA792F
:10056000214813465B001344DB00034410331B682F
:100570005868FA791C4C13465B001344DB00234493
:100580005B68C31A4B602AE03B69002B20DB7B6968
:100590001B69002B1CD1FA79134913465B001344E5
:1005A000DB000B4410337A695A60FA7913465B001A
:1005B0001344DB000C4A1A447B691A61FA793969E1
:1005C000094813465B001344DB000344596006E00E
:1005D0007B691B697B617B69002B7FF450AFFFF760
:1005E000A1FE1C37BD4690BDE8000020E5000020BC
:1005F0001801002080B584B000AF0346FB71FA7982
:1006000013465B001344DB002C4A1344FB602C4B65
:100610001B78DBB20133DAB2294B1A70FB685B69D5
:10062000002B07D1FB681B69002B03D1254B00224F
:100630001A603DE0FB685B69002B14D1FB681B6905
:10064000204A13601F4B1B6800225A61FB681B691C
:10065000FA6812695168FA6852680A445A60FB687D
:1006600000221A6124E0FB681B69002B07D1FB689C
:100670005B6900221A61FB6800225A6118E0FB687E
:100680005B69FA6812691A61FB681B69FA6852694A
:100690005A61FB681B69FA6812695168FA68526806
:1006A0000A445A60FB6800221A61FB6800225A6102
:1006B000FFF738FE1037BD4680BD00BFE8000020C0
:1006C000E50000201801002080B586B000AFB960B9
:1006D0007A603B600346FB73FB7B002B04D0FB7B03
:1006E000012B01D0FF237BE03B68002B01D1FF23CE
:1006F00076E03D4B1B78DBB20133DAB23A4B1A702D
:100700000023FB7566E0FB7D012202FA03F31A4623
:10071000364B1B681340002B59D1FB7D012202FA96
:1007200003F31A46314B1B681343304A1360FFF73B
:10073000F9FDFA7D2E4913465B001344DB000B44A0
:10074000FA7D1A70FA7D2A4913465B001344DB00D8
:100750000B44FA7B5A70FA7D254913465B0013441B
:10076000DB000B4401229A70FA7D214913465B009D
:100770001344DB000B44BA685A60FA7D1C491346E7
:100780005B001344DB000B4408337A681A60FA7D7F
:10079000174913465B001344DB000B4408333A68E7
:1007A0005A60FA7D124913465B001344DB000B4488
:1007B000103300225A60FA7D0D4913465B00134442
:1007C000DB000B44103300221A60FB7D08E0FB7D48
:1007D0000133FB75FB7D012B95D9FFF7A3FDFF23AB
:1007E00018461837BD4680BDE50000201C010020DA
:1007F000E800002080B582B000AF0346FB71FB79B2
:10080000012B01D9012325E0FB79012202FA03F330
:100810001A46124B1B681340002B01D1012319E02B
:10082000FA790F4913465B001344DB000B449B78B5
:10083000002B01D100230DE0FA79094913465B0032
:100840001344DB000B4400229A70FB791846FFF733
:10085000E9FD002318460837BD4680BD1C01002075
:10086000E800002080B582B000AF1B4B1B687B60A6
:1008700027E07B685B78002B0BD17B681B781846E0
:10088000FFF7B8FE7B6801229A707B68DB689847A7
:1008900014E07B685B78012B10D17B681B781846CD
:1008A000FFF7A8FE7B689A687B685A607B681B78B4
:1008B0001846FFF7B7FD7B68DB689847064B1B6857
:1008C0007B607B68002B03D07B685B68002BD0D0FB
:1008D0000837BD4680BD00BF1801002080B500AFBD
:1008E000074B1B78DBB2012B06D9064B01221A708D
:1008F000054B01221A7001E0FFF7B4FF80BD00BF75
:10090000E5000020680500206A05002080B582B05F
:1009100000AF1020012100F0D9FD3C233B600023F3
:100920003B710123FB713B460348194601F0A8FBCC
:100930000837BD4680BD00BF0010024080B582B0C0
:1009400000AF0023FB711448042101F027FC03468B
:10095000002B01D10123FB710F48082101F01EFC7F
:100960000346002B01D10223FB710B48102101F03B
:1009700015FC0346002B01D10323FB7106482021FF
:1009800001F00CFC0346002B01D10423FB71FB7921
:1009900018460837BD4680BD0010024080B485B0BF
:1009A00000AF1C4B00221A701B4BBB601B4B7B60C3
:1009B0000023FB7319E0BB68FA7B9A71BB680322C2
:1009C0005A71BB687A685A62FB7B154AFF21D15481
:1009D000FB7B144AFF21D154BB682C33BB607B687E
:1009E0002C337B60FB7B0133FB73FB7B0F2BE2D94A
:1009F000FB7B0C4AFF21D154BB68FA7B9A71BB6820
:100A000000225A62084B044A1A601437BD465DF84A
:100A1000047B7047D8060020200100204C010020F4
:100A200028050020F40600200C05002080B485B0C5
:100A300000AF03463960FB710023BB73194B1B7871
:100A4000FB7321E0BB7B7B73BA7BFB7B1344DA0F28
:100A500013445B10BB73BB7B134AD35CFA799A4295
:100A600004D13B68BA7B1A70012315E0BB7B0E4AA8
:100A7000D35CFA799A4204D2BB7BFB737B7BBB735A
:100A800002E0BB7B0133BB73BA7BFB7B9A42D9D1BB
:100A90003B68BA7B1A70002318461437BD465DF8D0
:100AA000047B7047D8060020F406002080B485B08F
:100AB00000AF0346FB71FB795B09FB73FB7903F025
:100AC0001F03BB73FB7B404A52F82330BB60BB68FB
:100AD000002B6AD0BB7BDB087B737B7BDB00FF22B8
:100AE00002FA03F31A46BB681340002B53D07B7BFA
:100AF000DB00F02202FA03F31A46BB681340002B16
:100B00001FD0BB7B3B7315E097F90C30012202FA32
:100B100003F31A46BB681340002B06D0FB7B5B0136
:100B2000DAB23B7B1344DBB247E03B7BDBB2013BF9
:100B3000DBB23B7397F90C207B7BDB0004339A42DA
:100B4000E2DABB7B03F00403002B05D0BB7B43F050
:100B50000303DBB2043BBB73BB7B3B7315E097F92C
:100B60000C30012202FA03F31A46BB681340002B33
:100B700006D0FB7B5B01DAB23B7B1344DBB21CE0AB
:100B80003B7BDBB2013BDBB23B7397F90C207B7BF9
:100B9000DB009A42E3DA7B7BDB00DBB2013BBB7319
:100BA0007B7B5A1E7A73002B97D11F23BB73FB7B71
:100BB0005A1EFA73002B85D1FF2318461437BD4601
:100BC0005DF8047B704700BFF006002080B485B05C
:100BD00000AF0346FB710023BB730023BB60FB79AE
:100BE0005B09BB730023FB730AE0FB7B012202FA63
:100BF00003F31A46BB681343BB60FB7B0133FB73F3
:100C0000FB7903F01F03DBB2FA7B9A42EDD3BB7B87
:100C1000204A52F82330BA681340BB60FB79FB735B
:100C200025E0FB7B03F01F03DBB2002B0DD1FA7B29
:100C3000FB799A4209D0BB7B5A1CBA731946154AF4
:100C4000BB6842F821300023BB60FB7B124AD35CB7
:100C5000FF2B09D0FB7B03F01F03012202FA03F3F1
:100C60001A46BB681343BB60FB7B0133FB730B4B22
:100C70001B78FA7B9A42D4D3BB7B5A1CBA731946B1
:100C8000044ABB6842F821301437BD465DF8047B46
:100C9000704700BFF006002028050020D80600207D
:100CA00080B483B000AF0346FB71FB795B09DBB214
:100CB0001A460A4B53F82230FA7902F01F0201213A
:100CC00001FA02F21340002B01D1002300E00123BE
:100CD00018460C37BD465DF8047B7047F0060020CF
:100CE00080B485B000AF03460A46FB711346BB7162
:100CF000FB795B09DBB21A46124B53F82230FB60DA
:100D0000FB7903F01F03012202FA03F3DB431A46C7
:100D1000FB681340FB60BA79FB7903F01F0302FA0A
:100D200003F31A46FB681343FB60FB795B09DBB2F4
:100D30001946044AFB6842F821301437BD465DF875
:100D4000047B7047F006002080B584B000AF0346F6
:100D5000FB71FA7907F10E0310461946FFF766FE9C
:100D60000346002B39D1224B1B78FB7317E0FB7B2A
:100D7000FA7B013A1F49895C1E4AD154FB7BFA7BFE
:100D8000013A1D49895C1C4AD154FB7BFA7B013A2C
:100D90001A49895C194AD154FB7B013BFB73BB7B2D
:100DA000FA7B9A42E3D8BB7B1946124AFB7953542B
:100DB000BB7B1A46104B01219954BB7B1A460F4B43
:100DC000FF2199540A4B1B780133DAB2084B1A7091
:100DD000BB7B1846FFF7FAFE06E0BB7B064AD25CF7
:100DE0000132D1B2044AD1541037BD4680BD00BF94
:100DF000D8060020F4060020DC060020280500208C
:100E000080B586B000AF78607B681B79FB747B6827
:100E100000225A71484B1B687B617B691B79FA7C05
:100E20009A421ED17A697B689A421AD07B69002B5C
:100E300017D0424BD3E90001414BD3E9002399423B
:100E400008BF90420DD27B695B8998B24FF00001D8
:100E50003B4BD3E90023121843EB01033749C1E9A7
:100E60000023FA7C07F10B0310461946FFF7DEFD5D
:100E7000FB7A1846FFF714FF0346012B11D1FB7ACA
:100E80001A46304B9B5C1A462C2303FB02F32E4A76
:100E900013447B61FB7A1A467B689979294B9954F4
:100EA00034E0FB7A1A467B689979264B9954FB7A91
:100EB0001846FFF7FBFD0346BB74FB7A1846012179
:100EC000FFF70EFFBB7CFF2B16D1204B1B687B610D
:100ED0001F4B01221A707B69002B03D11B4A7B68D0
:100EE000136025E07B687A695A627B697A689A6246
:100EF000164A7B6813601BE0BB7C124AD35C1A461F
:100F00002C2303FB02F3104A13447B617B695B6A69
:100F1000FB607B68FA685A627B697A685A627B6810
:100F20007A699A62FB68002B02D0FB687A689A6241
:100F30001837BD4680BD00BF1805002020050020E1
:100F4000D0060020280500202001002010050020E8
:100F5000E600002080B584B000AF78600023FB730A
:100F60007B681B79BB73BA7B07F10D0310461946EA
:100F7000FFF75CFD7B685B6A002B09D17B689B6A8D
:100F8000002B05D13D4B00221A600123FB7365E065
:100F90007B689B6A002B13D17B685B6A374A1360BE
:100FA0007B6800225A62354B1B6800229A62334BE1
:100FB0001B681B79BA7B9A4250D00123FB734DE02A
:100FC0007B685B6A002B17D17B689B6A1B79BA7BB5
:100FD0009A4202D00123FB7306E07B7B1A467B68B2
:100FE0009B6A9979264B99547B689B6A00225A62C6
:100FF0007B6800229A6231E07B689B6A1B79BA7B2E
:101000009A4208D07B685B6A1B79BA7B9A4202D00D
:101010000123FB7312E07B689B6A1B79BA7B9A42BF
:101020000CD17B685B6A1B79BA7B9A4206D07B7BCA
:101030001A467B689B6A9979114B99547B689B6A25
:101040007A68526A5A627B685B6A7A68926A9A62C4
:101050007B6800225A627B6800229A62FB7B012B2C
:1010600009D17B7B1A46064BFF2199547B7B18469E
:101070000021FFF735FE1037BD4680BD100500206A
:101080002805002080B584B000AF454B1B68FB608D
:10109000444B1B68BB60BB68002B0ED0424B1B68E7
:1010A000FA689A4209D1414B1B78DBB2012B04D874
:1010B0003F4B1B78DBB2002B00D06DE03D4B002294
:1010C0001A70FB681B79FB71BB681B79BB71FB68ED
:1010D0005B79012B09D0344ABB681360BB680122DD
:1010E0005A71B868FFF736FF2CE0BA79FB799A425B
:1010F0000CD22D4ABB681360F868FFF781FEB86810
:10110000FFF728FFBB6801225A711BE0FA79BB790F
:101110009A4216D1284BD3E90001284BD3E900238A
:10112000994208BF90420CD11F4ABB681360F8680F
:10113000FFF766FEB868FFF70DFFBB6801225A7122
:1011400000E029E0184B1B681A79164B1B681B79C5
:101150009A420ED1144B1B685B8998B24FF0000184
:10116000164BD3E90023121843EB01031249C1E9DE
:101170000023FB681A68FB68DB689A4205D3FB68AA
:10118000DB681B680E4A934204D0FB689B791846C3
:1011900001F0F8FC01F04AF91037BD4680BD00BFF0
:1011A000180500201005002014050020E50000208F
:1011B000E4000020E600002020050020D0060020EA
:1011C000A5A55A5A80B582B000AF0F4B1B78DBB291
:1011D0000133DAB20C4B1A700C4B1B68002B03D195
:1011E000FFF7A0F800230AE0084B1B687B60074B61
:1011F0001B685B6A054A1360FFF794F87B68184622
:101200000837BD4680BD00BFE50000200C0500206A
:1012100080B588B000AFF860B9607A603B607A68EA
:10122000404B13401B0ABB837B68FB76FB68002B9B
:1012300001D1FF2372E03B68002B01D1FF236DE059
:10124000FB7E402B01D9FF2368E0BB8B132B01D819
:10125000FF2363E0F868B9683A6801F039FB786108
:10126000FFF7B0FF38613B69002B01D1FF2355E048
:101270003B697A691A603B69FA7E1A71BA8B134628
:101280009B079B1A9B0004333A681A443B69DA6057
:101290003B69DB68244A1A603B694FF0FF321A62EF
:1012A0003B6900225A623B6900229A627A681F4BAE
:1012B00013401B0DFB83FB8B002B01D10A23FB8307
:1012C0003B69FA8B5A813B690022DA613B69FF2254
:1012D0001A723B6900221A613B6900225A613B691C
:1012E00000229A613B69FF22DA71FB7E1846FFF704
:1012F0002BFD7B68002B0CDB0D4B1B78DBB2013325
:10130000DAB20B4B1A703869FFF77AFDFFF70AF86B
:1013100002E03B6902225A713B699B7918462037EB
:10132000BD4680BD00FF0F00A5A55A5A0000FF7FF3
:10133000E500002080B582B000AF0F4B7B600F4B03
:101340003B6007E03B681A1D3A607A68111D7960BE
:1013500012681A603B680A4A9342F3D309480A4963
:101360004FF000028842B8BF40F8042BFADB00F0CF
:101370009FF80837BD4680BD902B00080000002074
:101380000C00002010000020100B002080B400AFE3
:10139000FEE700BF80B582B000AF394B1B78012B50
:1013A00004D100F0D5FB364B00221A70354B1B7868
:1013B000012B04D1FFF756FA324B00221A704CE091
:1013C00001F026F8304B5B782F4ADB0013443A4695
:1013D000043393E8030082E803002B4B5B785A1C2C
:1013E0002A4B83FB02135910D317C91A0B469B00D3
:1013F0000B44D11ACAB2244B5A70234B1B78013BC1
:10140000DAB2214B1A7000F0FBFF3B78013B032B53
:1014100022D801A252F823F029140008331400083E
:10142000411400084B1400087B78184601F068FB53
:1014300013E07A787B681046194600F065F80CE0F6
:101440007B78184601F022F907E07A787B6810462D
:10145000194600F07FFF00E000BF0B4B1B78002B0C
:10146000AED100F0D5FF084B1B78002B02D1084B02
:1014700000221A7000F0C4FF0837BD4680BD00BFCF
:10148000690500206A0500203C0500206766666645
:101490006805002080B500AF00F0D4FB80BD00BF20
:1014A00080B500AF00F056F900F0E8FB80BD00BF4A
:1014B00080B500AF00F0A8FEFEF75AFFFFF7EAFF85
:1014C000FFF7EEFFFEF792FFFEE700BF80B483B0A8
:1014D00000AF78600B46FB70FB78002B06D0094903
:1014E000084B1A6B7B6813430B6306E00549054BF9
:1014F0001A6B7B68DB4313400B630C37BD465DF80A
:10150000047B70470038024080B584B000AF0346CA
:101510003960FB71FB79132B01D9012326E0FB799C
:101520001B01144A1344FB60FB685B7903F00F0353
:10153000DBB2022B01D0012318E0FB68DB88002B13
:1015400013D10D4B1B78DBB20133DAB20A4B1A70A0
:10155000FB683A681A60FB680122DA80F86800F0DC
:10156000BDFCFEF7DFFE002300E00723184610371E
:10157000BD4680BD74050020E500002080B500AFA9
:101580000020FEF76FFE0120FEF72EFE0220FEF780
:101590002BFE0320FEF766FE0420FEF763FE00200C
:1015A000002100224FF4617300F07AFA0120FEF767
:1015B00059FE0220FEF756FE0320FEF715FE04201A
:1015C000FEF712FE0020002100224FF4617300F0AC
:1015D00067FA0020FEF746FE80BD00BF80B500AF71
:1015E0000020FEF73FFE0120FEF7FEFD0220FEF781
:1015F000FBFD0320FEF736FE0420FEF733FE00203D
:10160000002100224FF4C87300F04AFA0120FEF7CF
:1016100029FE0220FEF726FE0320FEF7E5FD04204A
:10162000FEF7E2FD0020002100224FF4C87300F015
:1016300037FA0020FEF716FE80BD00BF80B500AF70
:101640000020FEF70FFE0120FEF7CEFD0020002156
:101650000022FA2300F024FA0220FEF7C5FD002044
:1016600000210022FA2300F01BFA0320FEF7BCFD44
:10167000002000210022FA2300F012FA0420FEF7D5
:10168000B3FD002000210022FA2300F009FA002017
:10169000002100224FF4FA7300F002FA0120FEF755
:1016A000E1FD002000210022FA2300F0F9F90220D8
:1016B000FEF7D8FD002000210022FA2300F0F0F907
:1016C0000320FEF7CFFD002000210022FA2300F0C6
:1016D000E7F90420FEF7C6FD002000210022FA23CE
:1016E00000F0DEF90020FEF7BDFD80BD80B582B0C0
:1016F00000AF0020FEF7B6FD01237B6024E000234D
:101700003B601BE07B68DBB21846FEF76DFD0020F6
:1017100000210022C82300F0C3F97B68DBB2184621
:10172000FEF7A0FD002000210022C82300F0B8F938
:101730000020FEF797FD3B6801333B603B68042BBC
:10174000E0DD7B6801337B607B68042BD7DD0837E5
:10175000BD4680BD80B500AFFEF716FD012001211A
:10176000022201F029F903461A460F4B1A700F485E
:10177000012144F202020E4BFFF74AFD0D48012100
:1017800044F202020C4BFFF743FD0C48012144F2E6
:1017900002020B4BFFF73CFD0A48012144F2020212
:1017A000094BFFF735FD80BD080B0020CD17000861
:1017B00004080020FD170008040900202D18000867
:1017C000040A00205D180008040B002080B582B0D8
:1017D00000AF78600120002100F00CFA064B1B7866
:1017E0001846002101F018F9FFF7C8FE024B1B78DC
:1017F000184601F085F9EDE7080B002080B582B0AE
:1018000000AF78600220002100F0F4F9064B1B784D
:101810001846002101F000F9FFF7E0FE024B1B78AB
:10182000184601F06DF9EDE7080B002080B582B095
:1018300000AF78600320002100F0DCF9064B1B7834
:101840001846002101F0E8F8FFF7F8FE024B1B787C
:10185000184601F055F9EDE7080B002080B582B07D
:1018600000AF78600420002100F0C4F9064B1B781B
:101870001846002101F0D0F8FFF738FF024B1B7823
:10188000184601F03DF9EDE7080B002080B485B063
:1018900000AF786039603B68002B00D164E0354BC5
:1018A0001B68002B06D17B683A681A62314A7B6854
:1018B000136053E02F4B1B68BB603B68FB604AE042
:1018C000FA68BB681B6AD31AFB60FB68002B2EDA30
:1018D000BB689B6A002B0ED0BB689B6A7A685A6211
:1018E000BB689A6A7B689A627B68BA685A62BB680E
:1018F0007A689A620AE01F4B1A687B685A621D4B2D
:101900001B687A689A621B4A7B6813607B685B6A13
:101910001A6AFB681A447B681A627B685B6A7A6899
:10192000526A116A7A68126A8A1A1A6216E0FB68A9
:10193000002B0DDBBB685B6A002B09D17B68BA68A2
:101940009A62BB687A685A62FA687B681A6205E034
:10195000BB685B6ABB60BB68002BB1D17B680222AD
:101960005A71054B01221A701437BD465DF8047B8D
:10197000704700BF6C050020E600002080B483B0F3
:1019800000AF78607B689B6A002B07D17B685B6A3D
:10199000002B03D1254B00221A603DE07B689B6A37
:1019A000002B14D17B685B6A204A13607B685B6AFA
:1019B0007A68526A116A7A68126A0A441A627B6803
:1019C0005B6A00229A627B6800225A6224E07B688C
:1019D0005B6A002B07D17B689B6A00225A627B6896
:1019E00000229A6218E07B689B6A7A68526A5A629F
:1019F0007B685B6A7A68926A9A627B685B6A7A68DB
:101A0000526A116A7A68126A0A441A627B68002272
:101A10005A627B6800229A627B684FF0FF321A623A
:101A20000C37BD465DF8047B704700BF6C05002095
:101A300080B582B000AF7860164B1B78DBB2002B0C
:101A400001D0032321E07B68B3F1FF3F01D10223E2
:101A50001BE07B68002B01D1002316E00E4B1B78A6
:101A6000DBB2002B01D015230FE00B4B1B78DBB250
:101A70000133DAB2084B1A70084B1B6818467968B4
:101A8000FFF704FFFEF74EFC002318460837BD465B
:101A900080BD00BFE4000020E50000201805002004
:101AA00090B585B000AF0446084611461A46234655
:101AB000FB710346BB710B467B7113467B80214B48
:101AC0001B78DBB2002B01D0032336E0BB793B2B24
:101AD00006D87B793B2B03D87B88B3F57A7F01D37B
:101AE00002232AE0184B1B78DBB2002B01D0152310
:101AF00023E0FB794FF4616202FB03F1BA791346EC
:101B00001B019B1A9B00CA187B7913444FF47A720D
:101B100002FB03F27B884FF47A7101FB03F303F5B8
:101B2000FA730A4981FB03018911DB17CB1A1344AD
:101B3000FB60F868FFF77CFF002318461437BD46AA
:101B400090BD00BFE4000020E5000020D34D6210EE
:101B500080B582B000AF1A4B1B687B6026E07B68C3
:101B60001B7AFF2B02D0786800F03EFA7B68DB69B5
:101B7000002B04D07B68DB69184600F067FE7B68A9
:101B80004FF0FF321A627B685B6A0D4A13607B6814
:101B900000225A627868FFF733F9094B1B687B60B3
:101BA0007B68002B02D07B6800229A627B68002B46
:101BB00003D07B681B6A002BD1D00837BD4680BD9F
:101BC0006C05002080B500AF074B1B78DBB2012B02
:101BD00006D9064B01221A70054B01221A7001E04A
:101BE000FFF7B6FF80BD00BFE500002068050020BC
:101BF0006905002080B582B000AF03463960FB71F3
:101C0000FB79013B054AD35C1846396800F082FC39
:101C1000FB7918460837BD4680BD00BF0C0B00207D
:101C200080B582B000AF0346FB71FB79013B044AEB
:101C3000D35C184600F02AFD0837BD4680BD00BFC2
:101C40000C0B002080B582B000AF00237B600DE05C
:101C50000120002100F012FC03461946064A7B6869
:101C600013440A461A707B6801337B607B68032B40
:101C7000EEDD0837BD4680BD0C0B002080B582B07C
:101C800000AFFEF743FE012064216422054BFEF7FE
:101C90001BFD0346FB71FB791846FEF7ABFD0837C9
:101CA000BD4680BDA91C000880B582B000AFFEF71C
:101CB00045FE0346FB71094B1B78FA799A4207D01F
:101CC000064B1B78002B03D1FB791846FFF7A8FFC2
:101CD000024AFB7913700837BD4680BD70050020AD
:101CE00080B485B000AF0023FB73184BBB60184B6A
:101CF0007B6014E0BB687A681A60BB68FA7B1A7173
:101D0000BA685379042161F303035371BB6810333C
:101D1000BB607B6810337B60FB7B0133FB73FB7B19
:101D2000122BE7D9BA685379042161F30303537185
:101D3000BB6800221A60BB68FA7B1A71054B034A24
:101D40001A601437BD465DF8047B704774050020A7
:101D500084050020B406002080B584B000AF03469F
:101D60003A60FB710B46BB711A4B1B78DBB2013337
:101D7000DAB2184B1A70184B1B68002B03D1FEF710
:101D8000D1FA002322E0144B1B68FB60124B1B6846
:101D90001B68114A1360FEF7C5FAFB7903F00F03C5
:101DA000D9B2FA68537961F303035371BB7903F035
:101DB0000F03D9B2FA68537961F307135371FB68C3
:101DC0003A681A60FB680022DA60FB681846103730
:101DD000BD4680BDE5000020B406002080B584B07B
:101DE00000AF786039603B4B1B78DBB20133DAB26D
:101DF000384B1A707B68DB68FB607B681A793B683C
:101E00001A727B685B7923F00F03DBB2102B15D1BC
:101E1000FB68002B03D17B683A68DA604EE002E091
:101E2000FB685B69FB60FB685B69002BF8D1FB68B2
:101E30003A685A613B68FA689A613FE07B685B796F
:101E400023F00F03DBB2202B38D1FB68002B03D12A
:101E50007B683A68DA6031E0FB681A793B681B7985
:101E60009A4209D97B683A68DA603B68FA685A6135
:101E7000FB683A689A6121E0FB685B69BB600BE034
:101E8000BB681A793B681B799A4200D907E0BB68A6
:101E9000FB60BB685B69BB60BB68002BF0D1FB6873
:101EA0003A685A613B68FA689A613B68BA685A6155
:101EB000BB68002B02D0BB683A689A613B6802227B
:101EC0005A71054B01221A70FEF72CFA1037BD46E5
:101ED00080BD00BFE5000020E600002080B584B092
:101EE00000AF78607B68DB68FB60FB68002B00D18B
:101EF00074E0FB685A697B68DA607B68DB68002BFA
:101F000003D07B68DB6800229A61FB6800225A617B
:101F1000FB68FF221A72FB681B6AB3F1FF3F02D015
:101F2000F868FFF72BFD7B685B7903F00F03DBB2EA
:101F3000022B0DD17B681A68FB681A617B6800224E
:101F40001A607B68DB88013B9AB27B68DA8039E0F3
:101F50007B685B7903F00F03DBB2032B21D17B6835
:101F60001B68BB60BB681A68BB68DB889B001344B6
:101F70001A68FB681A61BB68DB8801339AB2BB68D8
:101F8000DA80BB689B89013B9AB2BB689A81BB68C7
:101F9000DA88BB685B899A4214D1BB680022DA8078
:101FA00010E07B685B7903F00F03DBB2012B09D1F2
:101FB0007B68DB88013B9AB27B68DA80FB684FF074
:101FC000FF321A61074B1B68FA689A4203D1FB681B
:101FD00001225A7102E0F868FEF712FF1037BD4681
:101FE00080BD00BF1805002080B485B000AF7860C8
:101FF0007B681B7A1B01214A1344FB607B685B6989
:10200000002B07D17B689B69002B03D1FB68002262
:10201000DA602BE07B689B69002B0BD17B685B69E6
:1020200000229A617B685A69FB68DA607B6800224B
:102030005A611BE07B685B69002B07D17B689B6959
:1020400000225A617B6800229A610FE07B689B69DD
:102050007A6852695A617B685B697A6892699A61A9
:102060007B6800229A617B6800225A617B68FF22AC
:102070001A721437BD465DF8047B70477405002062
:1020800080B487B000AF7860396000237B610023A3
:102090003B610023FB6000237B6176E07B690122CA
:1020A00002FA03F33B613B681A683B691340FB602B
:1020B000FA683B699A4265D17B681A687B695B0064
:1020C000194603238B40DB431A407B681A607B6808
:1020D0001A683B681B7919467B695B0001FA03F3B8
:1020E0001A437B681A603B681B79012B03D03B685D
:1020F0001B79022B2ED17B689A687B695B0019469D
:1021000003238B40DB431A407B689A607B689A68A4
:102110003B685B7919467B695B0001FA03F31A435C
:102120007B689A607B685A687B699BB21946012379
:102130008B40DB431A407B685A607B685B683A6877
:10214000927911467A6992B201FA02F292B21A4376
:102150007B685A607B68DA687B699BB25B0003210D
:1021600001FA03F3DB431A407B68DA607B68DA68C4
:102170003B68DB7919467B695B0001FA03F31A437C
:102180007B68DA607B6901337B617B690F2B85D9C2
:102190001C37BD465DF8047B704700BF80B485B036
:1021A00000AF78600B467B800023FB737B681A6965
:1021B0007B881340002B02D00123FB7301E0002336
:1021C000FB73FB7B18461437BD465DF8047B7047F4
:1021D00080B483B000AF78600B467B807B687A88E0
:1021E0001A830C37BD465DF8047B704780B483B01A
:1021F00000AF78600B467B807B687A885A830C3707
:10220000BD465DF8047B704780B500AF114A114BA5
:102210001B6843F0010313600E4B00229A600D4AC5
:102220000C4B1B6823F0847323F480331360094B39
:10223000094A5A60074A074B1B6823F4802313603E
:10224000044B0022DA6000F00BF8044B4FF0006200
:102250009A6080BD003802401030002400ED00E09C
:1022600080B483B000AF00237B6000233B60354A1D
:10227000344B1B6843F480331360324B1B6803F408
:1022800000333B607B6801337B603B68002B03D1EC
:102290007B68B3F5A06FF0D12A4B1B6803F40033C1
:1022A000002B02D001233B6001E000233B603B6830
:1022B000012B42D1234A234B1B6C43F08053136400
:1022C000214A214B1B6843F4804313601D4A1D4B78
:1022D0009B6893601B4A1B4B9B6843F400439360CD
:1022E000184A184B9B6843F4A0539360154B174A48
:1022F0005A60144A134B1B6843F08073136000BF8D
:10230000104B1B6803F00073002BF9D0104B40F208
:1023100005621A600B4A0B4B9B6823F00303936022
:10232000084A084B9B6843F00203936000BF054BCB
:102330009B6803F00C03082BF9D10C37BD465DF800
:10234000047B70470038024000700040085440078A
:10235000003C024080B584B000AF03463960FB7199
:10236000FB79132B01D9012342E0FB791B01224A9F
:102370001344FB60FB685B7903F00F03DBB2032BB4
:1023800001D0012334E0FB681B68BB60BB689A89FD
:10239000BB685B899A4201D1082329E0174B1B785F
:1023A000DBB20133DAB2154B1A70BB681A68BB682E
:1023B0001B899B0013443A681A60BB681B89013370
:1023C0009AB2BB681A81BB689B8901339AB2BB6819
:1023D0009A81BB681A89BB685B899A4202D1BB6843
:1023E00000221A81F868FFF779FDFDF79BFF0023B3
:1023F00018461037BD4680BD74050020E50000205A
:1024000080B400AF62B600BFBD465DF8047B704784
:1024100080B400AF72B600BFBD465DF8047B704764
:10242000A0F11C0080F30988704700BF024B1B68B5
:10243000024A116819607047000000200400002063
:102440000B4B19680B4A126891420AD0EFF30980CE
:1024500020E9F00F08601A601068B0E8F00F80F310
:102460000988054B002018704EF0040E70470000DC
:102470001805002014050020E500002080B584B078
:1024800000AF03460A46FB711346BB711F4B1B7816
:10249000DBB20133DAB21D4B1A700023FB732AE062
:1024A0001B4B9B68FA7B012101FA02F21340002BBF
:1024B0001ED1174B9B68FA7B012101FA02F21343EC
:1024C000134A9360124B1B68B979FA7B01FA02F246
:1024D00013430F4A13600E4B5B68F979FA7B01FADC
:1024E00002F213430A4A5360FDF71CFFFB7B08E02E
:1024F000FB7B0133FB73FB7B1F2BD1D9FDF712FF55
:10250000FF2318461037BD4680BD00BFE500002000
:10251000B806002080B58AB000AF03463960FB7171
:10252000554B1B78DBB2002B01D00323A0E0534BAB
:102530001B78DBB2002B01D0152399E0FB791F2B10
:1025400001D9012394E04E4B9B68FA79012101FAED
:1025500002F21340002B01D1012389E0474B1B7885
:10256000DBB20133DAB2454B1A70454B7B627B6AB2
:102570001B68FA79012101FA02F21340002B0FD0F7
:102580007B6A1A687B6A5B68F979012000FA01F1BD
:102590000B40DB431A407B6A1A60FDF7C3FE66E01E
:1025A000384B1B683B623B68002B2ED1FB79012224
:1025B00002FA03F31A4607F10C03184611460222E9
:1025C00000F0DEF83B6A02225A712F4B01221A708A
:1025D000FDF7A8FE3B6A0022DA61284B1B78DBB2CC
:1025E0000133DAB2254B1A707B6A1A68FB79012134
:1025F00001FA03F319467B6A5B680B40DB431A4020
:102600007B6A1A60FDF78EFE31E0FB79012202FA47
:1026100003F31A4607F10C0318461146022200F094
:10262000AFF8386A3968FFF731F9FDF77BFE3B6A8E
:10263000DB69002B01D105231AE03B6A0022DA6135
:102640000E4B1B78DBB20133DAB20C4B1A707B6A8B
:102650001A68FB79012101FA03F319467B6A5B686A
:102660000B40DB431A407B6A1A60FDF75BFE0023D8
:1026700018462837BD4680BDE4000020E500002054
:10268000B806002018050020E600002080B584B0C0
:1026900000AF0346FB71384BBB60FB791F2B01D9A0
:1026A000012364E0BB689B68FA79012101FA02F218
:1026B0001340002B01D1012359E0BB681B68FA7954
:1026C000012101FA02F21340002B01D000234EE059
:1026D000BB681B68FA79012101FA02F21A43BB6850
:1026E0001A60264B1B78DBB20133DAB2234B1A7027
:1026F000BB68DB68FB6034E0FB681B7C002B17D1F8
:10270000FB689A68BB681B681A40FB689B689A4222
:1027100024D1F86800F070F8F860BB685B68FA795B
:10272000012101FA02F21340002B00D01CE018E056
:10273000FB689A68BB681B681340002B0ED0F868D2
:1027400000F05AF8F860BB685B68FA79012101FA79
:1027500002F21340002B00D006E002E0FB681B6889
:10276000FB60FB68002BC7D1FDF7DCFD002318469A
:102770001037BD4680BD00BFB8060020E500002030
:1027800080B487B000AFF860B9601346FB71184B96
:102790007B61184B1B68FA68DA61164B1A68FB6894
:1027A000DA60FB68BA689A60FB68FA791A747B6928
:1027B0001B69002B09D1FB6800221A60FB6800220C
:1027C0005A607B69FA68DA600AE07B691B69FA681B
:1027D0001A607B691A69FB685A60FB6800221A60FC
:1027E0007B69FA681A611C37BD465DF8047B704747
:1027F000B80600201805002080B584B000AF7860CE
:10280000786800F023F87B68DB68FB60FB681B6A74
:10281000B3F1FF3F02D0F868FFF7B0F8FB684FF064
:10282000FF32DA61084B1B68FA689A4203D1FB68F1
:1028300001225A7102E0F868FEF7E2FA7B681B6831
:1028400018461037BD4680BD1805002080B483B0FF
:1028500000AF78607B681B68002B0AD17B685B68DF
:10286000002B06D1194B0022DA60184B00221A61A6
:1028700023E07B681B68002B08D17B685B68134AE8
:1028800013617B685B6800221A6016E07B685B68F6
:10289000002B08D17B681B680C4AD3607B681B68DF
:1028A00000225A6009E07B681B687A6852685A60A7
:1028B0007B685B687A6812681A607B68DB68002254
:1028C000DA610C37BD465DF8047B7047B80600201E
:1028D00080B487B000AFF860B9607A607B687B61D4
:1028E0007B691A1F7A614FF080721A607B691A1F28
:1028F0007A61FA681A607B696FF001021A607B697D
:10290000143B7B61BA687B691A607B69203B7B6101
:102910007B6918461C37BD465DF8047B704700BFD5
:1029200080B500AF1F4B1B78DBB20133DAB21D4B11
:102930001A701D4BD3E90023013243F100031A49F9
:10294000C1E90023194B1B68002B10D0174B1B68E3
:102950001B6A012B05D9154B1B681A6A013A1A62CA
:1029600005E0124B1B6800221A62FFF72BF9104B8F
:102970001B68002B10D00E4B1B685B68012B05D920
:102980000B4B1B685A68013A5A6005E0084B1B68FC
:1029900000225A60FDF7A2FF064B01221A70FDF7D4
:1029A000C1FC80BDE5000020D00600206C050020A1
:1029B00018010020E600002080B584B000AF034677
:1029C000FB800B46BB801346FB70FA88BB889A429B
:1029D00001D9FF231BE0FB78012B04D0FB78022BED
:1029E00001D0FF2313E0FB78012019460022FFF7F6
:1029F000B3F9F860FB68002B01D1FF2307E0FB6807
:102A0000FA88DA80FB68BA881A81FB681B79184655
:102A10001037BD4680BD00BF80B584B000AF03460F
:102A20003960FB71324B1B78DBB2002B01D00323E2
:102A30005AE0FB79132B01D9012355E0FB791B01E7
:102A40002C4A1344FB60FB685B7903F00F03DBB295
:102A5000012B01D0012347E0274B1B78DBB2002B71
:102A600001D0152340E0244B1B78DBB20133DAB2EE
:102A7000214B1A70FB68DB88002B09D0FB68DB88D0
:102A8000013B9AB2FB68DA80FDF74CFC00232BE097
:102A9000FDF748FC194B1B68BB603B68002B08D155
:102AA000F868B968FFF79AF9BB6800221A61002339
:102AB0001AE0114B1B78DBB20133DAB20E4B1A70FD
:102AC000F868B968FFF78AF9B8683968FEF7DEFE7A
:102AD000FDF728FCBB681B69002B01D1052303E02F
:102AE000BB6800221A61002318461037BD4680BD1E
:102AF000E400002074050020E500002018050020F7
:102B000080B584B000AF0346FB71FB79132B01D96C
:102B1000012328E0FB791B01154A1344FB60FB6885
:102B20005B7903F00F03DBB2012B01D001231AE024
:102B3000FB68DA88FB681B899A4201D1062312E000
:102B40000C4B1B78DBB20133DAB20A4B1A70FB680C
:102B5000DB8801339AB2FB68DA80F868FFF7BEF9C8
:102B6000FDF7E0FB002318461037BD4680BD00BFCF
:102B700074050020E500002080B483B000AF7860C9
:102B8000FEE700BF80B483B000AF0346FB71FEE7F1
:0C2B900004ED00E000000010FCFFFFFF5F
:0400000508000000EF
:00000001FF
