:020000040800F2
:100000000013002039110008911100089111000817
:1000100091110008911100089111000800000000E2
:100020000000000000000000000000009111000826
:1000300091110008000000000D1F00086521000854
:100040009111000891110008911100089111000808
:1000500091110008911100089111000891110008F8
:1000600091110008911100089111000891110008E8
:1000700091110008911100089111000891110008D8
:1000800091110008911100089111000891110008C8
:1000900091110008911100089111000891110008B8
:1000A00091110008911100089111000891110008A8
:1000B0009111000891110008911100089111000898
:1000C0009111000891110008911100089111000888
:1000D0009111000891110008911100089111000878
:1000E0009111000891110008911100089111000868
:1000F0009111000891110008911100089111000858
:100100009111000891110008911100089111000847
:100110009111000891110008911100089111000837
:100120009111000891110008911100089111000827
:100130009111000891110008911100089111000817
:100140009111000891110008911100089111000807
:1001500091110008911100089111000891110008F7
:1001600091110008911100089111000891110008E7
:1001700091110008911100089111000891110008D7
:10018000911100089111000880B582B000AF802065
:10019000012101F09DF80C233B6001233B710223F8
:1001A0007B710023BB710023FB713B460C48194651
:1001B00001F0E6FC4FF48070012101F089F84FF462
:1001C000A0633B6001233B710023BB710023FB71E3
:1001D0003B460448194601F0D3FC0837BD4680BDB4
:1001E000001C02400020024080B582B000AF0346F0
:1001F000FB71FB79042B2DD801A252F823F000BF2C
:100200001502000829020008330200083D02000818
:100210004902000811480C2101F040FD10484FF43C
:10022000A06101F03BFD15E00C48042101F036FD12
:1002300010E00A48082101F031FD0BE008484FF4B6
:10024000807101F02BFD05E005484FF4806101F05D
:1002500025FD00BF0837BD4680BD00BF001C024021
:100260000020024080B582B000AF0346FB71FB79ED
:10027000042B2DD801A252F823F000BF91020008F0
:10028000A5020008AF020008B9020008C502000874
:1002900011480C2101F010FD10484FF4A06101F04D
:1002A0000BFD15E00C48042101F006FD10E00A48A2
:1002B000082101F001FD0BE008484FF4807101F0C6
:1002C000FBFC05E005484FF4806101F0F5FC00BF40
:1002D0000837BD4680BD00BF001C02400020024020
:1002E00080B400AF0C4A0D4B1A600B4BC8330B4A5D
:1002F00053600B4B084A1A60094B1B6800221A60B6
:10030000074B1B6800225A60054B1B6800229A604D
:10031000BD465DF8047B704710000020DC00002023
:10032000D800002080B500AF0E4B1B78DBB2012B4C
:1003300010D10D4B1B78012B01D100F02DFF0B4B81
:100340001B78DBB2012B01D100F09EFD054B002292
:100350001A7006E0034B1B78DBB2013BDAB2014BAB
:100360001A7080BDE500002068050020E60000202E
:1003700080B500AF154B164A1A60164B07221A605B
:10038000154A154B1B6843F07F431360134A134B08
:100390001B686FEA03436FEA1343136000F000FA2F
:1003A00001F0E0FAFFF79CFF0D4B1B78DBB2013345
:1003B000DAB20B4B1A700B48002144F240020A4B90
:1003C00000F028FE084801F091FD80BD14E000E037
:1003D0003F90020010E000E01CED00E020ED00E0A6
:1003E000E5000020752200080805002080B500AF58
:1003F000094B0A4A1A60084B1B68094A1360064BEE
:100400001B6801225A71044B1B68184600F0A4FCBB
:10041000FFF788FF80BD00BF1805002020010020E5
:100420001405002090B587B000AF0346FB71FA7940
:100430006D4913465B001344DB000B445B68FB60B3
:10044000FB68002B00D1CCE0684B1B78DBB201339A
:10045000DAB2664B1A70664B1B68002B09D1FA7929
:1004600013465B001344DB005F4A1344604A136089
:10047000B5E05F4B1B687B61FB683B61ABE03A69B1
:100480007B695B68D31A3B613B69002B7CDA7B6933
:100490005B69002B28D07B695969FA7913465B00A8
:1004A0001344DB00504A13440B61FA797B695969A4
:1004B0004D4813465B001344DB000344103359607E
:1004C000FA79494913465B001344DB000B441033AF
:1004D0007A691A60FA7913465B001344DB00424ADA
:1004E0001A447B695A611DE0FA79414B19683E480C
:1004F00013465B001344DB000344103319603C4B8C
:100500001968FA7913465B001344DB00364A13443A
:100510004B61FA7913465B001344DB00324A134403
:10052000334A1360FA79F9792F480B465B000B4484
:10053000DB00034410331B6859683B6919442A489F
:1005400013465B001344DB0003445960FA792649E3
:1005500013465B001344DB000B4410331968FA792F
:10056000214813465B001344DB00034410331B682F
:100570005868FA791C4C13465B001344DB00234493
:100580005B68C31A4B602AE03B69002B20DB7B6968
:100590001B69002B1CD1FA79134913465B001344E5
:1005A000DB000B4410337A695A60FA7913465B001A
:1005B0001344DB000C4A1A447B691A61FA793969E1
:1005C000094813465B001344DB000344596006E00E
:1005D0007B691B697B617B69002B7FF450AFFFF760
:1005E000A1FE1C37BD4690BDE8000020E5000020BC
:1005F0001801002080B584B000AF0346FB71FA7982
:1006000013465B001344DB002C4A1344FB602C4B65
:100610001B78DBB20133DAB2294B1A70FB685B69D5
:10062000002B07D1FB681B69002B03D1254B00224F
:100630001A603DE0FB685B69002B14D1FB681B6905
:10064000204A13601F4B1B6800225A61FB681B691C
:10065000FA6812695168FA6852680A445A60FB687D
:1006600000221A6124E0FB681B69002B07D1FB689C
:100670005B6900221A61FB6800225A6118E0FB687E
:100680005B69FA6812691A61FB681B69FA6852694A
:100690005A61FB681B69FA6812695168FA68526806
:1006A0000A445A60FB6800221A61FB6800225A6102
:1006B000FFF738FE1037BD4680BD00BFE8000020C0
:1006C000E50000201801002080B582B000AF1B4B70
:1006D0001B687B6027E07B685B78002B0BD17B6815
:1006E0001B781846FFF786FF7B6801229A707B68AB
:1006F000DB68984714E07B685B78012B10D17B683E
:100700001B781846FFF776FF7B689A687B685A600B
:100710007B681B781846FFF785FE7B68DB68984787
:10072000064B1B687B607B68002B03D07B685B6893
:10073000002BD0D00837BD4680BD00BF1801002077
:1007400080B500AF074B1B78DBB2012B06D9064BF7
:1007500001221A70054B01221A7001E0FFF7B4FF65
:1007600080BD00BFE5000020680500206A0500206C
:1007700080B582B000AF1020012100F0A9FD3C231C
:100780003B6000233B710123FB713B460348194644
:1007900001F0F6F90837BD4680BD00BF00100240E9
:1007A00080B485B000AF1C4B00221A701B4BBB609D
:1007B0001B4B7B600023FB7319E0BB68FA7B9A71CB
:1007C000BB6803225A71BB687A685A62FB7B154A80
:1007D000FF21D154FB7B144AFF21D154BB682C3339
:1007E000BB607B682C337B60FB7B0133FB73FB7B43
:1007F0000F2BE2D9FB7B0C4AFF21D154BB68FA7B5B
:100800009A71BB6800225A62084B044A1A60143776
:10081000BD465DF8047B7047D00600202001002013
:100820004C01002028050020EC0600200C050020CB
:1008300080B485B000AF03463960FB710023BB7301
:10084000194B1B78FB7321E0BB7B7B73BA7BFB7B73
:100850001344DA0F13445B10BB73BB7B134AD35CA6
:10086000FA799A4204D13B68BA7B1A70012315E0E9
:10087000BB7B0E4AD35CFA799A4204D2BB7BFB73F2
:100880007B7BBB7302E0BB7B0133BB73BA7BFB7B1F
:100890009A42D9D13B68BA7B1A70002318461437A4
:1008A000BD465DF8047B7047D0060020EC060020B2
:1008B00080B485B000AF0346FB71FB795B09FB7325
:1008C000FB7903F01F03BB73FB7B404A52F82330D4
:1008D000BB60BB68002B6AD0BB7BDB087B737B7B78
:1008E000DB00FF2202FA03F31A46BB681340002B19
:1008F00053D07B7BDB00F02202FA03F31A46BB687D
:100900001340002B1FD0BB7B3B7315E097F90C30D5
:10091000012202FA03F31A46BB681340002B06D0EB
:10092000FB7B5B01DAB23B7B1344DBB247E03B7BF2
:10093000DBB2013BDBB23B7397F90C207B7BDB0026
:1009400004339A42E2DABB7B03F00403002B05D0A8
:10095000BB7B43F00303DBB2043BBB73BB7B3B734A
:1009600015E097F90C30012202FA03F31A46BB682E
:100970001340002B06D0FB7B5B01DAB23B7B1344B8
:10098000DBB21CE03B7BDBB2013BDBB23B7397F994
:100990000C207B7BDB009A42E3DA7B7BDB00DBB263
:1009A000013BBB737B7B5A1E7A73002B97D11F23AD
:1009B000BB73FB7B5A1EFA73002B85D1FF231846AD
:1009C0001437BD465DF8047B704700BFE806002081
:1009D00080B485B000AF0346FB710023BB730023D6
:1009E000BB60FB795B09BB730023FB730AE0FB7BF5
:1009F000012202FA03F31A46BB681343BB60FB7B78
:100A00000133FB73FB7903F01F03DBB2FA7B9A42DD
:100A1000EDD3BB7B204A52F82330BA681340BB6049
:100A2000FB79FB7325E0FB7B03F01F03DBB2002B9C
:100A30000DD1FA7BFB799A4209D0BB7B5A1CBA7361
:100A40001946154ABB6842F821300023BB60FB7B86
:100A5000124AD35CFF2B09D0FB7B03F01F0301225A
:100A600002FA03F31A46BB681343BB60FB7B0133F6
:100A7000FB730B4B1B78FA7B9A42D4D3BB7B5A1C7B
:100A8000BA731946044ABB6842F821301437BD4690
:100A90005DF8047B704700BFE806002028050020B1
:100AA000D006002080B483B000AF0346FB71FB7911
:100AB0005B09DBB21A460A4B53F82230FA7902F08E
:100AC0001F02012101FA02F21340002B01D1002381
:100AD00000E0012318460C37BD465DF8047B7047E3
:100AE000E806002080B485B000AF03460A46FB71DB
:100AF0001346BB71FB795B09DBB21A46124B53F804
:100B00002230FB60FB7903F01F03012202FA03F39A
:100B1000DB431A46FB681340FB60BA79FB7903F0AC
:100B20001F0302FA03F31A46FB681343FB60FB79C9
:100B30005B09DBB21946044AFB6842F821301437DE
:100B4000BD465DF8047B7047E806002080B584B0A0
:100B500000AF0346FB71FA7907F10E031046194600
:100B6000FFF766FE0346002B39D1224B1B78FB733F
:100B700017E0FB7BFA7B013A1F49895C1E4AD1547E
:100B8000FB7BFA7B013A1D49895C1C4AD154FB7BF3
:100B9000FA7B013A1A49895C194AD154FB7B013B23
:100BA000FB73BB7BFA7B9A42E3D8BB7B1946124AA4
:100BB000FB795354BB7B1A46104B01219954BB7BE4
:100BC0001A460F4BFF2199540A4B1B780133DAB2B6
:100BD000084B1A70BB7B1846FFF7FAFE06E0BB7B9A
:100BE000064AD25C0132D1B2044AD1541037BD4614
:100BF00080BD00BFD0060020EC060020D4060020F7
:100C00002805002080B586B000AF78607B681B792E
:100C1000FB747B6800225A71484B1B687B617B69BF
:100C20001B79FA7C9A421ED17A697B689A421AD063
:100C30007B69002B17D0424BD3E90001414BD3E92C
:100C40000023994208BF90420DD27B695B8998B21C
:100C50004FF000013B4BD3E90023121843EB010393
:100C60003749C1E90023FA7C07F10B031046194606
:100C7000FFF7DEFDFB7A1846FFF714FF0346012B52
:100C800011D1FB7A1A46304B9B5C1A462C2303FB8E
:100C900002F32E4A13447B61FB7A1A467B689979EA
:100CA000294B995434E0FB7A1A467B689979264B94
:100CB0009954FB7A1846FFF7FBFD0346BB74FB7A99
:100CC00018460121FFF70EFFBB7CFF2B16D1204BEE
:100CD0001B687B611F4B01221A707B69002B03D1BB
:100CE0001B4A7B68136025E07B687A695A627B69DE
:100CF0007A689A62164A7B6813601BE0BB7C124AD2
:100D0000D35C1A462C2303FB02F3104A13447B6185
:100D10007B695B6AFB607B68FA685A627B697A6808
:100D20005A627B687A699A62FB68002B02D0FB6882
:100D30007A689A621837BD4680BD00BF180500204A
:100D400020050020C80600202805002020010020E2
:100D500010050020E600002080B584B000AF786068
:100D60000023FB737B681B79BB73BA7B07F10D0310
:100D700010461946FFF75CFD7B685B6A002B09D1C2
:100D80007B689B6A002B05D13D4B00221A60012332
:100D9000FB7365E07B689B6A002B13D17B685B6A01
:100DA000374A13607B6800225A62354B1B68002269
:100DB0009A62334B1B681B79BA7B9A4250D001234D
:100DC000FB734DE07B685B6A002B17D17B689B6AE5
:100DD0001B79BA7B9A4202D00123FB7306E07B7B2E
:100DE0001A467B689B6A9979264B99547B689B6A63
:100DF00000225A627B6800229A6231E07B689B6A1B
:100E00001B79BA7B9A4208D07B685B6A1B79BA7BF4
:100E10009A4202D00123FB7312E07B689B6A1B7924
:100E2000BA7B9A420CD17B685B6A1B79BA7B9A4287
:100E300006D07B7B1A467B689B6A9979114B995443
:100E40007B689B6A7A68526A5A627B685B6A7A68D6
:100E5000926A9A627B6800225A627B6800229A62D8
:100E6000FB7B012B09D17B7B1A46064BFF21995452
:100E70007B7B18460021FFF735FE1037BD4680BD4D
:100E8000100500202805002080B584B000AF454B38
:100E90001B68FB60444B1B68BB60BB68002B0ED01B
:100EA000424B1B68FA689A4209D1414B1B78DBB26E
:100EB000012B04D83F4B1B78DBB2002B00D06DE038
:100EC0003D4B00221A70FB681B79FB71BB681B79D4
:100ED000BB71FB685B79012B09D0344ABB68136096
:100EE000BB6801225A71B868FFF736FF2CE0BA7967
:100EF000FB799A420CD22D4ABB681360F868FFF761
:100F000081FEB868FFF728FFBB6801225A711BE019
:100F1000FA79BB799A4216D1284BD3E90001284BC4
:100F2000D3E90023994208BF90420CD11F4ABB6805
:100F30001360F868FFF766FEB868FFF70DFFBB683F
:100F400001225A7100E029E0184B1B681A79164BF0
:100F50001B681B799A420ED1144B1B685B8998B2AF
:100F60004FF00001164BD3E90023121843EB0103A5
:100F70001249C1E90023FB681A68FB68DB689A42E2
:100F800005D3FB68DB681B680E4A934204D0FB68FC
:100F90009B79184601F074F900F0AEFF1037BD469A
:100FA00080BD00BF1805002010050020140500209A
:100FB000E5000020E4000020E600002020050020DD
:100FC000C8060020A5A55A5A80B582B000AF0F4BC5
:100FD0001B78DBB20133DAB20C4B1A700C4B1B6876
:100FE000002B03D1FFF79EF900230AE0084B1B6892
:100FF0007B60074B1B685B6A054A1360FFF792F939
:101000007B6818460837BD4680BD00BFE50000205C
:101010000C05002080B588B000AFF860B9607A6038
:101020003B607A68404B13401B0ABB837B68FB76AE
:10103000FB68002B01D1FF2372E03B68002B01D13C
:10104000FF236DE0FB7E402B01D9FF2368E0BB8BC3
:10105000132B01D8FF2363E0F868B9683A6801F000
:1010600059F87861FFF7B0FF38613B69002B01D177
:10107000FF2355E03B697A691A603B69FA7E1A7171
:10108000BA8B13469B079B1A9B0004333A681A4499
:101090003B69DA603B69DB68244A1A603B694FF0C0
:1010A000FF321A623B6900225A623B6900229A624F
:1010B0007A681F4B13401B0DFB83FB8B002B01D168
:1010C0000A23FB833B69FA8B5A813B690022DA6170
:1010D0003B69FF221A723B6900221A613B690022B8
:1010E0005A613B6900229A613B69FF22DA71FB7EFB
:1010F0001846FFF72BFD7B68002B0CDB0D4B1B7894
:10110000DBB20133DAB20B4B1A703869FFF77AFDA4
:10111000FFF708F902E03B6902225A713B699B79AB
:1011200018462037BD4680BD00FF0F00A5A55A5ABE
:101130000000FF7FE500002080B582B000AF0F4BBC
:101140007B600F4B3B6007E03B681A1D3A607A6892
:10115000111D796012681A603B680A4A9342F3D302
:1011600009480A494FF000028842B8BF40F8042BF2
:10117000FADB00F09FF80837BD4680BD8C220008DE
:10118000000000200C00002010000020000B0020B8
:1011900080B400AFFEE700BF80B582B000AF394B2E
:1011A0001B78012B04D100F07FFB364B00221A7014
:1011B000354B1B78012B04D1FFF786FA324B002206
:1011C0001A704CE000F08AFE304B5B782F4ADB004F
:1011D00013443A46043393E8030082E803002B4BA0
:1011E0005B785A1C2A4B83FB02135910D317C91A78
:1011F0000B469B000B44D11ACAB2244B5A70234BA6
:101200001B78013BDAB2214B1A7000F05FFE3B788D
:10121000013B032B22D801A252F823F02D12000823
:1012200037120008451200084F1200087B78184654
:1012300000F0E4FF13E07A787B681046194600F06E
:1012400065F80CE07B78184600F07EFE07E07A78BF
:101250007B681046194600F0E3FD00E000BF0B4B31
:101260001B78002BAED100F039FE084B1B78002B09
:1012700002D1084B00221A7000F028FE0837BD4644
:1012800080BD00BF690500206A0500203C050020E4
:10129000676666666805002080B500AF00F056FB03
:1012A00080BD00BF80B500AF00F04AF900F054FBEC
:1012B00080BD00BF80B500AF00F00CFDFFF758F80F
:1012C000FFF7EAFFFFF7EEFFFFF790F8FEE700BF3A
:1012D00080B483B000AF78600B46FB70FB78002BC6
:1012E00006D00949084B1A6B7B6813430B6306E071
:1012F0000549054B1A6B7B68DB4313400B630C37C6
:10130000BD465DF8047B70470038024080B584B06C
:1013100000AF03463960FB71FB79132B01D9012320
:1013200026E0FB791B01144A1344FB60FB685B79E0
:1013300003F00F03DBB2022B01D0012318E0FB689E
:10134000DB88002B13D10D4B1B78DBB20133DAB2F3
:101350000A4B1A70FB683A681A60FB680122DA804F
:10136000F86800F03BFBFEF7DDFF002300E00723F9
:1013700018461037BD4680BD70050020E5000020EE
:1013800080B500AF0020FEF76DFF0120FEF72CFFB7
:101390000220FEF729FF0320FEF764FF0420FEF77A
:1013A00061FF0020002100224FF47A7300F024FA3C
:1013B0000120FEF757FF0220FEF754FF0320FEF73F
:1013C00013FF0420FEF710FF0020002100224FF43D
:1013D0007A7300F011FA80BD80B500AF0020FEF7EF
:1013E00041FF0120FEF700FF0220FEF7FDFE032073
:1013F000FEF738FF0420FEF735FF00200021002211
:101400004FF4C87300F0F8F90120FEF72BFF02201B
:10141000FEF728FF0320FEF7E7FE0420FEF7E4FEB8
:101420000020002100224FF4C87300F0E5F980BDD0
:1014300080B500AF0020FEF715FF0120FEF7D4FEB7
:10144000002000210022FA2300F0D6F90220FEF746
:10145000CBFE002000210022FA2300F0CDF903206A
:10146000FEF7C2FE002000210022FA2300F0C4F99A
:101470000420FEF7B9FE002000210022FA2300F02C
:10148000BBF90020002100224FF4FA7300F0B4F9F8
:101490000120FEF7E7FE002000210022FA2300F0E1
:1014A000ABF90220FEF7DEFE002000210022FA2325
:1014B00000F0A2F90320FEF7D5FE00200021002253
:1014C000FA2300F099F90420FEF7CCFE0020002159
:1014D0000022FA2300F090F980BD00BF80B582B0F1
:1014E00000AF0020FEF7BEFE01237B6021E0002359
:1014F0003B6018E07B68DBB21846FEF775FE002003
:1015000000210022C82300F077F97B68DBB218467F
:10151000FEF7A8FE002000210022C82300F06CF98D
:101520003B6801333B603B68042BE3DD7B680133A0
:101530007B607B68042BDADD0837BD4680BD00BFC9
:1015400080B500AFFEF720FE0E48012144F20202F2
:101550000D4BFFF75FFD0D48012144F202020C4BD9
:10156000FFF758FD0B48012144F202020A4BFFF736
:1015700051FD0A48012144F20202094BFFF74AFDDE
:1015800080BD00BFA5150008FC070020B5150008A8
:10159000FC080020C5150008FC090020D51500082E
:1015A000FC0A002080B582B000AF7860FFF7E8FE4B
:1015B000FCE700BF80B582B000AF7860FFF70CFF9A
:1015C000FCE700BF80B582B000AF7860FFF730FF66
:1015D000FCE700BF80B582B000AF7860FFF77EFF08
:1015E000FCE700BF80B485B000AF786039603B682D
:1015F000002B00D164E0354B1B68002B06D17B68C3
:101600003A681A62314A7B68136053E02F4B1B68BB
:10161000BB603B68FB604AE0FA68BB681B6AD31A90
:10162000FB60FB68002B2EDABB689B6A002B0ED098
:10163000BB689B6A7A685A62BB689A6A7B689A62DE
:101640007B68BA685A62BB687A689A620AE01F4B84
:101650001A687B685A621D4B1B687A689A621B4A3B
:101660007B6813607B685B6A1A6AFB681A447B6854
:101670001A627B685B6A7A68526A116A7A68126ACF
:101680008A1A1A6216E0FB68002B0DDBBB685B6AE6
:10169000002B09D17B68BA689A62BB687A685A6283
:1016A000FA687B681A6205E0BB685B6ABB60BB686E
:1016B000002BB1D17B6802225A71054B01221A70AE
:1016C0001437BD465DF8047B704700BF6C050020F1
:1016D000E600002080B483B000AF78607B689B6A2E
:1016E000002B07D17B685B6A002B03D1254B0022BE
:1016F0001A603DE07B689B6A002B14D17B685B6AB3
:10170000204A13607B685B6A7A68526A116A7A6859
:10171000126A0A441A627B685B6A00229A627B68DA
:1017200000225A6224E07B685B6A002B07D17B6849
:101730009B6A00225A627B6800229A6218E07B68EA
:101740009B6A7A68526A5A627B685B6A7A68926AB4
:101750009A627B685B6A7A68526A116A7A68126A6E
:101760000A441A627B6800225A627B6800229A62ED
:101770007B684FF0FF321A620C37BD465DF8047B80
:10178000704700BF6C05002080B582B000AF786064
:10179000164B1B78DBB2002B01D0032321E07B68C2
:1017A000B3F1FF3F01D102231BE07B68002B01D185
:1017B000002316E00E4B1B78DBB2002B01D0152363
:1017C0000FE00B4B1B78DBB20133DAB2084B1A7017
:1017D000084B1B6818467968FFF704FFFEF7A2FD67
:1017E000002318460837BD4680BD00BFE400002036
:1017F000E50000201805002090B585B000AF044634
:10180000084611461A462346FB710346BB710B4638
:101810007B7113467B80214B1B78DBB2002B01D000
:10182000032336E0BB793B2B06D87B793B2B03D8CF
:101830007B88B3F57A7F01D302232AE0184B1B780B
:10184000DBB2002B01D0152323E0FB794FF461625A
:1018500002FB03F1BA7913461B019B1A9B00CA18BD
:101860007B7913444FF47A7202FB03F27B884FF4C6
:101870007A7101FB03F303F5FA730A4981FB030153
:101880008911DB17CB1A1344FB60F868FFF77CFF64
:10189000002318461437BD4690BD00BFE400002069
:1018A000E5000020D34D621080B582B000AF1A4B26
:1018B0001B687B6026E07B681B7AFF2B02D0786870
:1018C00000F012F97B68DB69002B04D07B68DB69D0
:1018D000184600F0DDFB7B684FF0FF321A627B6830
:1018E0005B6A0D4A13607B6800225A627868FFF7D2
:1018F00089F9094B1B687B607B68002B02D07B68F1
:1019000000229A627B68002B03D07B681B6A002B45
:10191000D1D00837BD4680BD6C05002080B500AF32
:10192000074B1B78DBB2012B06D9064B01221A703C
:10193000054B01221A7001E0FFF7B6FF80BD00BF22
:10194000E5000020680500206905002080B400AF94
:10195000BD465DF8047B704780B500AFFEF708FF19
:1019600080BD00BF80B485B000AF0023FB73184B6F
:10197000BB60184B7B6014E0BB687A681A60BB6878
:10198000FA7B1A71BA685379042161F30303537126
:10199000BB681033BB607B6810337B60FB7B01331B
:1019A000FB73FB7B122BE7D9BA685379042161F3EF
:1019B00003035371BB6800221A60BB68FA7B1A717B
:1019C000054B034A1A601437BD465DF8047B704727
:1019D0007005002080050020B006002080B584B08E
:1019E00000AF78607B68DB68FB60FB68002B00D190
:1019F00074E0FB685A697B68DA607B68DB68002BFF
:101A000003D07B68DB6800229A61FB6800225A6180
:101A1000FB68FF221A72FB681B6AB3F1FF3F02D01A
:101A2000F868FFF757FE7B685B7903F00F03DBB2C2
:101A3000022B0DD17B681A68FB681A617B68002253
:101A40001A607B68DB88013B9AB27B68DA8039E0F8
:101A50007B685B7903F00F03DBB2032B21D17B683A
:101A60001B68BB60BB681A68BB68DB889B001344BB
:101A70001A68FB681A61BB68DB8801339AB2BB68DD
:101A8000DA80BB689B89013B9AB2BB689A81BB68CC
:101A9000DA88BB685B899A4214D1BB680022DA807D
:101AA00010E07B685B7903F00F03DBB2012B09D1F7
:101AB0007B68DB88013B9AB27B68DA80FB684FF079
:101AC000FF321A61074B1B68FA689A4203D1FB6820
:101AD00001225A7102E0F868FFF794F81037BD460A
:101AE00080BD00BF1805002080B485B000AF7860CD
:101AF0007B681B7A1B01214A1344FB607B685B698E
:101B0000002B07D17B689B69002B03D1FB68002267
:101B1000DA602BE07B689B69002B0BD17B685B69EB
:101B200000229A617B685A69FB68DA607B68002250
:101B30005A611BE07B685B69002B07D17B689B695E
:101B400000225A617B6800229A610FE07B689B69E2
:101B50007A6852695A617B685B697A6892699A61AE
:101B60007B6800229A617B6800225A617B68FF22B1
:101B70001A721437BD465DF8047B7047700500206B
:101B800080B487B000AF7860396000237B610023A8
:101B90003B610023FB6000237B6176E07B690122CF
:101BA00002FA03F33B613B681A683B691340FB6030
:101BB000FA683B699A4265D17B681A687B695B0069
:101BC000194603238B40DB431A407B681A607B680D
:101BD0001A683B681B7919467B695B0001FA03F3BD
:101BE0001A437B681A603B681B79012B03D03B6862
:101BF0001B79022B2ED17B689A687B695B001946A2
:101C000003238B40DB431A407B689A607B689A68A9
:101C10003B685B7919467B695B0001FA03F31A4361
:101C20007B689A607B685A687B699BB2194601237E
:101C30008B40DB431A407B685A607B685B683A687C
:101C4000927911467A6992B201FA02F292B21A437B
:101C50007B685A607B68DA687B699BB25B00032112
:101C600001FA03F3DB431A407B68DA607B68DA68C9
:101C70003B68DB7919467B695B0001FA03F31A4381
:101C80007B68DA607B6901337B617B690F2B85D9C7
:101C90001C37BD465DF8047B704700BF80B483B03D
:101CA00000AF78600B467B807B687A881A830C379C
:101CB000BD465DF8047B704780B483B000AF7860A8
:101CC0000B467B807B687A885A830C37BD465DF86B
:101CD000047B704780B500AF114A114B1B6843F07D
:101CE000010313600E4B00229A600D4A0C4B1B68D7
:101CF00023F0847323F480331360094B094A5A603C
:101D0000074A074B1B6823F480231360044B00220F
:101D1000DA6000F00BF8044B4FF000629A6080BD6F
:101D2000003802401030002400ED00E080B483B0A1
:101D300000AF00237B6000233B60354A344B1B68B7
:101D400043F480331360324B1B6803F400333B6071
:101D50007B6801337B603B68002B03D17B68B3F564
:101D6000A06FF0D12A4B1B6803F40033002B02D084
:101D700001233B6001E000233B603B68012B42D123
:101D8000234A234B1B6C43F080531364214A214B9D
:101D90001B6843F4804313601D4A1D4B9B6893608E
:101DA0001B4A1B4B9B6843F400439360184A184B33
:101DB0009B6843F4A0539360154B174A5A60144A2A
:101DC000134B1B6843F08073136000BF104B1B68FC
:101DD00003F00073002BF9D0104B40F205621A603B
:101DE0000B4A0B4B9B6823F003039360084A084B94
:101DF0009B6843F00203936000BF054B9B6803F0B0
:101E00000C03082BF9D10C37BD465DF8047B7047F5
:101E1000003802400070004008544007003C024077
:101E200080B584B000AF03463960FB71FB79132B9A
:101E300001D9012342E0FB791B01224A1344FB60D4
:101E4000FB685B7903F00F03DBB2032B01D00123A6
:101E500034E0FB681B68BB60BB689A89BB685B8920
:101E60009A4201D1082329E0174B1B78DBB20133DA
:101E7000DAB2154B1A70BB681A68BB681B899B00E5
:101E800013443A681A60BB681B8901339AB2BB6875
:101E90001A81BB689B8901339AB2BB689A81BB687F
:101EA0001A89BB685B899A4202D1BB6800221A81F9
:101EB000F868FFF793FDFEF735FA00231846103750
:101EC000BD4680BD70050020E500002080B400AF55
:101ED00062B600BFBD465DF8047B704780B400AFBA
:101EE00072B600BFBD465DF8047B7047A0F11C00D0
:101EF00080F30988704700BF024B1B68024A1168D3
:101F00001960704700000020040000200B4B196886
:101F10000B4A126891420AD0EFF3098020E9F00FD2
:101F200008601A601068B0E8F00F80F30988054B6C
:101F3000002018704EF0040E7047000018050020B5
:101F400014050020E500002080B584B000AF0346F2
:101F5000FB71384BBB60FB791F2B01D9012364E077
:101F6000BB689B68FA79012101FA02F21340002B49
:101F700001D1012359E0BB681B68FA79012101FAFC
:101F800002F21340002B01D000234EE0BB681B6817
:101F9000FA79012101FA02F21A43BB681A60264B52
:101FA0001B78DBB20133DAB2234B1A70BB68DB68F3
:101FB000FB6034E0FB681B7C002B17D1FB689A6840
:101FC000BB681B681A40FB689B689A4224D1F8687A
:101FD00000F034F8F860BB685B68FA79012101FA17
:101FE00002F21340002B00D01CE018E0FB689A6856
:101FF000BB681B681340002B0ED0F86800F01EF879
:10200000F860BB685B68FA79012101FA02F21340BB
:10201000002B00D006E002E0FB681B68FB60FB6859
:10202000002BC7D1FEF77EF9002318461037BD46B6
:1020300080BD00BFB4060020E500002080B584B05C
:1020400000AF7860786800F023F87B68DB68FB609D
:10205000FB681B6AB3F1FF3F02D0F868FFF73AFB59
:10206000FB684FF0FF32DA61084B1B68FA689A424E
:1020700003D1FB6801225A7102E0F868FEF7C2FD45
:102080007B681B6818461037BD4680BD18050020C8
:1020900080B483B000AF78607B681B68002B0AD1E6
:1020A0007B685B68002B06D1194B0022DA60184B65
:1020B00000221A6123E07B681B68002B08D17B6833
:1020C0005B68134A13617B685B6800221A6016E044
:1020D0007B685B68002B08D17B681B680C4AD36067
:1020E0007B681B6800225A6009E07B681B687A687D
:1020F00052685A607B685B687A6812681A607B680D
:10210000DB680022DA610C37BD465DF8047B70475E
:10211000B406002080B487B000AFF860B9607A6080
:102120007B687B617B691A1F7A614FF080721A604D
:102130007B691A1F7A61FA681A607B696FF0010285
:102140001A607B69143B7B61BA687B691A607B69A2
:10215000203B7B617B6918461C37BD465DF8047BDC
:10216000704700BF80B500AF1F4B1B78DBB2013357
:10217000DAB21D4B1A701D4BD3E90023013243F133
:1021800000031A49C1E90023194B1B68002B10D02A
:10219000174B1B681B6A012B05D9154B1B681A6A64
:1021A000013A1A6205E0124B1B6800221A62FFF71F
:1021B000B5FB104B1B68002B10D00E4B1B685B68E7
:1021C000012B05D90B4B1B685A68013A5A6005E090
:1021D000084B1B6800225A60FEF7B2FA064B012238
:1021E0001A70FEF79FF880BDE5000020C8060020A9
:1021F0006C05002018010020E600002080B584B0A6
:1022000000AF0346FB71FB79132B01D9012328E0B2
:10221000FB791B01154A1344FB60FB685B7903F0F3
:102220000F03DBB2012B01D001231AE0FB68DA882F
:10223000FB681B899A4201D1062312E00C4B1B78E4
:10224000DBB20133DAB20A4B1A70FB68DB88013368
:102250009AB2FB68DA80F868FFF7C0FBFEF762F815
:10226000002318461037BD4680BD00BF7005002012
:10227000E500002080B483B000AF7860FEE700BFC7
:0C22800080B483B000AF0346FB71FEE7A2
:0C228C0004ED00E000000010FCFFFFFF6C
:0400000508000000EF
:00000001FF
